:020000040800F2
:1000000000002F2019EE0008057200080772000892
:10001000097200080B7200080D72000869EE0008F2
:1000200000000000000000000000000051CB0008AC
:100030000F72000800000000E1CA0008FDE6000899
:1000400069EE000869EE000869EE000869EE000834
:1000500069EE000869EE000869EE000869EE000824
:1000600069EE000869EE000869EE000869EE000814
:1000700069EE000869EE000869EE000869EE000804
:100080001172000869EE000869EE000869EE0008C8
:1000900069EE000869EE000869EE000869EE0008E4
:1000A00069EE000869EE000869EE000869EE0008D4
:1000B00069EE0008197200082572000869EE000850
:1000C00069EE000869EE000869EE000869EE0008B4
:1000D00069EE000869EE000869EE000869EE0008A4
:1000E00069EE000869EE000869EE000869EE000894
:1000F00069EE000869EE000869EE000869EE000884
:1001000069EE00083172000869EE000869EE000827
:1001100069EE000869EE000869EE000869EE000863
:1001200069EE000869EE000869EE000869EE000853
:1001300069EE000869EE000869EE000869EE000843
:1001400069EE000869EE000869EE000869EE000833
:1001500069EE000869EE000869EE000869EE000823
:1001600069EE000869EE000869EE000869EE000813
:1001700069EE000869EE000869EE000869EE000803
:1001800069EE000869EE000869EE000869EE0008F3
:1001900069EE000869EE000869EE000869EE0008E3
:1001A00069EE000869EE000869EE000869EE0008D3
:1001B00069EE000869EE000869EE000869EE0008C3
:1001C00069EE000869EE000869EE000869EE0008B3
:1001D00069EE000869EE000869EE000869EE0008A3
:1001E00069EE000869EE000869EE000869EE000893
:1001F00069EE000869EE000869EE000869EE000883
:1002000069EE000869EE000869EE000869EE000872
:1002100069EE000869EE00083D72000869EE00080A
:1002200069EE000869EE000869EE000869EE000852
:1002300069EE000869EE000869EE000869EE000842
:1002400069EE000869EE000869EE000849720008CE
:10025000557200086172000869EE00086D720008AE
:100260007972000869EE000869EE000869EE00087E
:040270007D72000893
:1002800010B5054C237833B9044B13B1044800E092
:1002900000BF0123237010BD0833062000000000BA
:1002A000000E040808B5034B1BB10349034800E0E6
:1002B00000BF08BD000000000C330620000E04083B
:1002C00081F0004102E000BF83F0004330B54FEA07
:1002D00041044FEA430594EA050F08BF90EA020F74
:1002E0001FBF54EA000C55EA020C7FEA645C7FEA07
:1002F000655C00F0E2804FEA5454D4EB5555B8BF2A
:100300006D420CDD2C4480EA020281EA030382EA9A
:10031000000083EA010180EA020281EA0303362D2C
:1003200088BF30BD11F0004F4FEA01314FF4801CFF
:100330004CEA113102D0404261EB410113F0004F11
:100340004FEA03334CEA133302D0524263EB4303C8
:1003500094EA050F00F0A780A4F10104D5F1200E66
:100360000DDB02FA0EFC22FA05F2801841F10001C1
:1003700003FA0EF2801843FA05F359410EE0A5F195
:1003800020050EF1200E012A03FA0EFC28BF4CF0C6
:10039000020C43FA05F3C01851EBE37101F000457C
:1003A00007D54FF0000EDCF1000C7EEB00006EEB89
:1003B0000101B1F5801F1BD3B1F5001F0CD3490813
:1003C0005FEA30004FEA3C0C04F101044FEA44526A
:1003D00012F5800F80F09A80BCF1004F08BF5FEAF1
:1003E000500C50F1000041EB045141EA050130BDD1
:1003F0005FEA4C0C404141EB010111F4801FA4F174
:100400000104E9D191F0000F04BF01460020B1FAC8
:1004100081F308BF2033A3F10B03B3F120020CDA00
:100420000C3208DD02F1140CC2F10C0201FA0CF0DE
:1004300021FA02F10CE002F11402D8BFC2F1200C43
:1004400001FA02F120FA0CFCDCBF41EA0C019040F9
:10045000E41AA2BF01EB0451294330BD6FEA040442
:100460001F3C1CDA0C340EDC04F11404C4F120022D
:1004700020FA04F001FA02F340EA030021FA04F33F
:1004800045EA030130BDC4F10C04C4F1200220FA96
:1004900002F001FA04F340EA0300294630BD21FAD4
:1004A00004F0294630BD94F0000F83F4801306BF9A
:1004B00081F480110134013D4EE77FEA645C18BF8E
:1004C0007FEA655C29D094EA050F08BF90EA020F25
:1004D00005D054EA000C04BF1946104630BD91EA1D
:1004E000030F1EBF0021002030BD5FEA545C05D120
:1004F0004000494128BF41F0004130BD14F580045F
:100500003CBF01F5801130BD01F0004545F0FE41D2
:1005100041F470014FF0000030BD7FEA645C1ABF07
:10052000194610467FEA655C1CBF0B46024650EA3E
:10053000013406BF52EA033591EA030F41F400216A
:1005400030BD00BF90F0000F04BF0021704730B5F0
:100550004FF4806404F132044FF000054FF00001C5
:1005600050E700BF90F0000F04BF0021704730B586
:100570004FF4806404F1320410F0004548BF40425B
:100580004FF000013EE700BF42004FEAE2014FEAB0
:1005900031014FEA02701FBF12F07F4393F07F4F8B
:1005A00081F06051704732F07F4208BF704793F08E
:1005B0007F4F04BF41F40021704730B54FF46074A1
:1005C00001F0004521F000411CE700BF50EA0102A4
:1005D00008BF704730B54FF000050AE050EA01024D
:1005E00008BF704730B511F0004502D5404261EBBD
:1005F00041014FF4806404F132045FEA915C3FF4FE
:10060000D8AE4FF003025FEADC0C18BF03325FEA9A
:10061000DC0C18BF033202EBDC02C2F1200300FA4B
:1006200003FC20FA02F001FA03FE40EA0E0021FA70
:1006300002F11444BDE600BF70B54FF0FF0C4CF45E
:10064000E06C1CEA11541DBF1CEA135594EA0C0F10
:1006500095EA0C0F00F0DEF82C4481EA030621EA4B
:100660004C5123EA4C5350EA013518BF52EA033586
:1006700041F4801143F4801338D0A0FB02CE4FF038
:100680000005E1FB02E506F00042E0FB03E54FF068
:100690000006E1FB03569CF0000F18BF4EF0010E60
:1006A000A4F1FF04B6F5007F64F5407404D25FEA5C
:1006B0004E0E6D4146EB060642EAC62141EA55510F
:1006C0004FEAC52040EA5E504FEACE2EB4F1FD0C51
:1006D00088BFBCF5E06F1ED8BEF1004F08BF5FEACF
:1006E000500E50F1000041EB045170BD06F0004681
:1006F00046EA010140EA020081EA0301B4EB5C042E
:10070000C2BFD4EB0C0541EA045170BD41F4801125
:100710004FF0000E013C00F3AB8014F1360FDEBF4A
:10072000002001F0004170BDC4F10004203C35DA26
:100730000C341BDC04F11404C4F1200500FA05F3A9
:1007400020FA04F001FA05F240EA020001F000424A
:1007500021F0004110EBD37021FA04F642EB0601C0
:100760005EEA430E08BF20EAD37070BDC4F10C04EA
:10077000C4F1200500FA04F320FA05F001FA04F2AE
:1007800040EA020001F0004110EBD37041F100019A
:100790005EEA430E08BF20EAD37070BDC4F12005A5
:1007A00000FA05F24EEA020E20FA04F301FA05F20D
:1007B00043EA020321FA04F001F0004121FA04F2B5
:1007C00020EA020000EBD3705EEA430E08BF20EA85
:1007D000D37070BD94F0000F0FD101F000464000BF
:1007E00041EB010111F4801F08BF013CF7D041EA41
:1007F000060195F0000F18BF704703F00046520045
:1008000043EB030313F4801F08BF013DF7D043EA15
:100810000603704794EA0C0F0CEA135518BF95EACB
:100820000C0F0CD050EA410618BF52EA4306D1D152
:1008300081EA030101F000414FF0000070BD50EA71
:10084000410606BF1046194652EA430619D094EAFB
:100850000C0F02D150EA013613D195EA0C0F05D1E5
:1008600052EA03361CBF104619460AD181EA030139
:1008700001F0004141F0FE4141F470014FF00000F1
:1008800070BD41F0FE4141F4780170BD70B54FF08C
:10089000FF0C4CF4E06C1CEA11541DBF1CEA13550C
:1008A00094EA0C0F95EA0C0F00F0A7F8A4EB0504EE
:1008B00081EA030E52EA03354FEA013100F08880E5
:1008C0004FEA03334FF0805545EA131343EA1263AE
:1008D0004FEA022245EA111545EA10654FEA002663
:1008E0000EF000419D4208BF964244F1FD0404F51C
:1008F000407402D25B084FEA3202B61A65EB030578
:100900005B084FEA32024FF480104FF4002CB6EB34
:10091000020E75EB030E22BFB61A754640EA0C00B4
:100920005B084FEA3202B6EB020E75EB030E22BFF4
:10093000B61A754640EA5C005B084FEA3202B6EB35
:10094000020E75EB030E22BFB61A754640EA9C00F4
:100950005B084FEA3202B6EB020E75EB030E22BFC4
:10096000B61A754640EADC0055EA060E18D04FEA82
:10097000051545EA16754FEA06164FEAC30343EA22
:1009800052734FEAC2025FEA1C1CC0D111F4801FEF
:100990000BD141EA00014FF000004FF0004CB6E7E8
:1009A00011F4801F04BF01430020B4F1FD0C88BF87
:1009B000BCF5E06F3FF6AFAEB5EB030C04BFB6EB92
:1009C000020C5FEA500C50F1000041EB045170BD85
:1009D0000EF0004E4EEA113114EB5C04C2BFD4EBB2
:1009E0000C0541EA045170BD41F480114FF0000E36
:1009F000013C90E645EA060E8DE60CEA135594EAB2
:100A00000C0F08BF95EA0C0F3FF43BAF94EA0C0FB4
:100A10000AD150EA01347FF434AF95EA0C0F7FF429
:100A200025AF104619462CE795EA0C0F06D152EA7D
:100A300003353FF4FDAE1046194622E750EA410661
:100A400018BF52EA43067FF4C5AE50EA41047FF472
:100A50000DAF52EA43057FF4EBAE12E74FEA4102D5
:100A6000B2F1E04324BFB3F5001CDCF1FE5C0DD90C
:100A700001F0004C4FEAC0024CEA5070B2F1004F56
:100A800040EB830008BF20F00100704711F0804F59
:100A900021D113F13872BCBF01F00040704741F41E
:100AA00080114FEA5252C2F11802C2F1200C10FA22
:100AB0000CF320FA02F018BF40F001004FEAC12306
:100AC0004FEAD32303FA0CFC40EA0C0023FA02F3AA
:100AD0004FEA4303CCE77FEA625307D150EA013380
:100AE0001EBF4FF0FE4040F44000704701F0004050
:100AF00040F0FE4040F40000704700BF70470438EB
:100B00007047704710B5044610213DF081FD204626
:100B100010BDA0F10400F5E7002210B58260044A80
:100B2000C16002F1080420320460426010BD00BFC1
:100B3000E80E0408704770477047704710B50446C8
:100B4000024B036003F0F0FB204610BD180F0408B1
:100B500010B50446FFF7F2FF204643F6FC313DF0A6
:100B600057FD204610BD000010B5044600F0D6FE2B
:100B7000014B2046236010BD180F040800F01CBC78
:100B80000022026070477047704700F5987308684C
:100B9000496803C37047704703F056BC10B504465C
:100BA0004FF4AE713DF034FD204610BD10B5044643
:100BB000D0F85801FFF7E7FF2046BDE8104016F0D7
:100BC0000DB910B50446D0F8400158B10368DB6890
:100BD000984738B1D4F8400103689B6898470023D0
:100BE000C4F8403110BD000010B5044603F0FCFB12
:100BF000014B2046236010BD4C0F040890F82520BF
:100C000012B103685B691847704700207047818004
:100C10007047C180704701817047418170477047BC
:100C20007047704770477047C38810B4D21A8388E2
:100C300012B2C91A036809B25B6D5DF8044B18471C
:100C40004FF6FF7383814FF0FF3303621368C36174
:100C50001060704790F825201AB190F8242002B156
:100C600018607047806A704770477047704700206F
:100C70007047B1F90430838001207047704780F8D5
:100C80002C10704710B40468036BD4F8A4405A4386
:100C9000594323465DF8044B1847D0ED0C7AF8EE23
:100CA000E77A20EE270AB5EEC00AF1EE10FA0368E3
:100CB000D3F8A43017DBB6EE007A30EE070ABDEEAB
:100CC000C07A17EE101A60EEA70AF5EEC00AF1EE30
:100CD00010FA1CDBF6EE007A70EEA70AFDEEE07A61
:100CE00017EE902A1847BDEEC07AF8EEC76A30EECC
:100CF000660AF7EE086A30EE260A17EE102ABDEEF5
:100D0000C00A511E10EE102A0A441146DBE7FDEE20
:100D1000E07AB8EEE77A70EEC70AB7EE087A70EEBE
:100D2000870AFDEEE00A17EE902A10EE90CA013A0B
:100D300094446246D6E710B40368046BD3F8B0302D
:100D400062435DF8044B1847D0ED0C7AF8EEE77A71
:100D500027EE800AB5EEC00AF1EE10FA0368D3F868
:100D6000B03008DBF6EE007A30EE270AFDEEC07AEE
:100D700017EE902A1847FDEEC07AB8EEE77A30EE0B
:100D8000470AB7EE087A30EE070ABDEEC00A17EE42
:100D9000902A10EE10CA013A94446246EAE710B471
:100DA0000468436BD4F8BC405A43594323465DF86A
:100DB000044B1847D0ED0D7AF8EEE77A20EE270ABB
:100DC000B5EEC00AF1EE10FA0368D3F8BC3017DBB9
:100DD000B6EE007A30EE070ABDEEC07A17EE101AB2
:100DE00060EEA70AF5EEC00AF1EE10FA1CDBF6EE93
:100DF000007A70EEA70AFDEEE07A17EE902A184707
:100E0000BDEEC07AF8EEC76A30EE660AF7EE086A01
:100E100030EE260A17EE102ABDEEC00A511E10EE63
:100E2000102A0A441146DBE7FDEEE07AB8EEE77AD5
:100E300070EEC70AB7EE087A70EE870AFDEEE00A98
:100E400017EE902A10EE90CA013A94446246D6E713
:100E500010B40368446BD3F8C03062435DF8044BB0
:100E60001847D0ED0D7AF8EEE77A27EE800AB5EE56
:100E7000C00AF1EE10FA0368D3F8C03008DBF6EED2
:100E8000007A30EE270AFDEEC07A17EE902A184756
:100E9000FDEEC07AB8EEE77A30EE470AB7EE087A90
:100EA00030EE070ABDEEC00A17EE902A10EE10CA07
:100EB000013A94446246EAE7D0F82C31026B002BE9
:100EC00007DB02EB430090FBF2F0022390FBF3F010
:100ED00070476FF0010000FB0320013890FBF2F037
:100EE000022390FBF3F040427047D0ED4B7A90ED37
:100EF0000C0AF8EEE77AB8EEC00A87EE800A70476F
:100F0000D0F82C017047D0F83031026B002B07DB92
:100F100002EB430090FBF2F0022390FBF3F07047EA
:100F20006FF0010000FB0320013890FBF2F0022378
:100F300090FBF3F040427047D0ED4C7A90ED0C0AF4
:100F4000F8EEE77AB8EEC00A87EE800A7047D0F86C
:100F500030017047D0F83431426B002B07DB02EBD5
:100F6000430090FBF2F0022390FBF3F070476FF028
:100F7000010000FB0320013890FBF2F0022390FBFC
:100F8000F3F040427047D0ED4D7A90ED0D0AF8EE47
:100F9000E77AB8EEC00A87EE800A7047D0F83401CD
:100FA0007047D0F83831426B002B07DB02EB43006F
:100FB00090FBF2F0022390FBF3F070476FF001001A
:100FC00000FB0320013890FBF2F0022390FBF3F0CA
:100FD00040427047D0ED4E7A90ED0D0AF8EEE77A78
:100FE000B8EEC00A87EE800A7047D0F83801704723
:100FF00008B590F82C300BB1FFF700FE08BD70B5B6
:1010000004460D4616460368D3F88830984723688F
:10101000324629462046BDE87040D3F89030184744
:101020000368D3F8943018470368D3F8D4301847CE
:101030000368D3F8E030184710B40368002AD3F8E7
:10104000A430046B0EDB04EB420191FBF4F10222AD
:1010500091FBF2F1B0F91E215DF8044B013A0A440C
:10106000494218476FF0010101FB0241013991FB30
:10107000F4F1022291FBF2F14942EBE70368D3F865
:101080003C311847026B03685143D3F84831184785
:101090000368D3F844311847D0ED0C7AF8EEE77ABC
:1010A00027EE800AB5EEC00AF1EE10FA0368D3F815
:1010B000483108DBF6EE007A30EE270AFDEEC07A02
:1010C00017EE901A1847FDEEC07AB8EEE77A30EEC8
:1010D000470AB7EE087A30EE070A17EE902ABDEEFF
:1010E000C00A511E10EE102A0A441146EAE7C0F861
:1010F0003C1170470368D3F85031184710B50368A6
:101100000446D3F85C3198470028236B07DB03EBD8
:10111000400090FBF3F0022390FBF3F010BD6FF062
:10112000010202FB0030013890FBF3F0022390FB38
:10113000F3F04042F2E70368D3F85831184710B58E
:1011400003680446D3F85C31984794ED0C0A07EE27
:10115000900AB8EEC00AF8EEE77A87EE800A10BD72
:10116000D0F83C017047026B03685143D3F86831F3
:101170001847D0ED0C7AF8EEE77A27EE800AB5EE44
:10118000C00AF1EE10FA0368D3F8683108DBF6EE16
:10119000007A30EE270AFDEEC07A17EE901A184753
:1011A000FDEEC07AB8EEE77A30EE470AB7EE087A7D
:1011B00030EE070A17EE902ABDEEC00A511E10EE5F
:1011C000102A0A441146EAE7C0F84011704710B5EA
:1011D00003680446D3F8743198470028236B07DB73
:1011E00003EB400090FBF3F0022390FBF3F010BD03
:1011F0006FF0010202FB0030013890FBF3F0022394
:1012000090FBF3F04042F2E710B503680446D3F8D0
:101210007431984794ED0C0A07EE900AB8EEC00AB4
:10122000F8EEE77A87EE800A10BDD0F840017047EB
:1012300010B5036800290446D3F88431026B10DB33
:1012400002EB410191FBF2F1022291FBF2F109B2B2
:1012500020469847D4F83C21D4F8403102FB0030B6
:1012600010BD6FF0010000FB0121013991FBF2F18B
:10127000022291FBF2F14942E9E7006B7047406BB3
:1012800070470368D3F8483118470368D3F85C31D6
:101290001847026B03685143D3F81431184770B5EF
:1012A00003680446D3F81851D3F88031D0F844616C
:1012B00098472B4656F820102046BDE87040184746
:1012C000B0F91C31B0F91E219A4207DBB0F94C018C
:1012D000084490FBF3F103FB110109B20846704783
:1012E0004801704780F82610704790F82600704734
:1012F000002210B5B1F90840B1F90A10028042800D
:101300008480C18010BD0022028042808280C28021
:101310007047C1627047C06A7047012070477047CC
:101320007047C06B18B10368D3F880301847704716
:1013300030B5B2F91651B2F8181105806C18B2F830
:101340004010B2F94220091B002481804480C280F1
:1013500030BD02808380BDF90020BDF90430428099
:10136000C38070470B680846D3F8EC3018470B6809
:101370000846D3F8F8301847B1F916017047B1F8AC
:101380001601B1F818310344B1F84000C01A00B298
:101390007047B1F914017047B1F81401B1F81A316E
:1013A0000344B1F84200C01A00B270470B68084607
:1013B000D3F8183111461847704770477047704787
:1013C000704783898B4286BF00EB81004068002014
:1013D0007047002210B58489031D91B28C4208D950
:1013E00053F8041B104691F8371001320029F4D04D
:1013F00010BD4FF0FF30FBE710B5036804461B69D2
:101400009847011E06DB23682046BDE81040DB68D4
:1014100089B21847002010BD002330B585899CB2E1
:10142000A54203F1010206D900EB84035B6883F84F
:1014300038101346F2E730BD83891BB1436893F837
:101440003800704718467047034630B4C568446892
:101450006A10ED0704EB02009B6848BFA25830BC3D
:1014600048BFD358184743682BB183682BB9C0686D
:1014700000F001007047184670470120704770B5B2
:101480000D4604460121284613F064F823682946D6
:101490002046BDE870405B6A184710B50446082135
:1014A0003DF0B6F8204610BD10B504464FF41F714C
:1014B0003DF0AEF8204610BD10B5044640213DF089
:1014C000A7F8204610BD10B5044638213DF0A0F81D
:1014D000204610BD10B5044610213DF099F8204675
:1014E00010BD00000A1E10B503DBB0F91E41944286
:1014F00006DC084B084A40F2396108483EF058FCC7
:101500000368D0F84441D3F88031984754F820005C
:1015100010BD00BF2E140408D2150408511404088D
:101520000B1E10B5044603DBB0F91E219A4206DCFF
:10153000084B094A40F2336108483EF039FC036821
:10154000D3F884319847D4F83C21D4F8403102FBD9
:10155000003010BD2E14040883150408511404082B
:1015600008B58389012B05D9094B0A4A41210A484C
:101570003EF01EFC00F110038B6200F12003CB63F0
:1015800083895A1C828100EB8300416008BD00BF43
:10159000EB120408DC1404082413040838B50A68A4
:1015A000D0E90C54D2F894200846904729460246C8
:1015B0002046BDE8384010F071BA70B50446406B63
:1015C0000D4650B10368DB68984730B1606B29461F
:1015D000BDE8704003689B68184770BD70B504464D
:1015E0000E460025A289ABB29A420CD904EB8303C4
:1015F0005868B04205D090F8373013B1002112F08E
:10160000A9FF0135EEE7206B50B10368DB6898470E
:1016100030B1206B3146BDE8704003689B681847C5
:1016200070BD00000A4A026000228280C2800281EE
:1016300042818281C28102824282C0E90522C26166
:101640000284428480F82420012280F825207047FB
:101650005048040870B50446154603681B6B98474C
:10166000236829462046BDE870405B6B184770B57B
:1016700004461E46BDF91050FFF7ECFF23683146C3
:1016800020469A6B9047236829462046BDE8704063
:10169000DB6B184710B50446262200213EF011FCF2
:1016A0002046FFF7BFFF044B20462360FF2384F84A
:1016B00026300023A36210BD4445040838B5044613
:1016C0000D46262200213EF0FCFB2046FFF7AAFF34
:1016D000064B204623602B882946E384FF2384F8A9
:1016E000283012F02FFD204638BD00BF9846040870
:1016F00010B50446262200213EF0E3FB2046FFF70A
:1017000091FF0C4B4FF6FF7223600B4B4FF47F01A0
:10171000A3620023A285C4E90C3184F8383084F830
:101720003930A387E387A4F84020A4F842206364FB
:10173000204610BDB4440408A00F040837B501AB1F
:10174000154617F065F800284FEA40142A4601991B
:101750004FF0200004DB17F07AF8204403B030BDCE
:1017600017F075F8201AF9E738B5B0F91441B0F858
:101770001A51D0F838216319B0F84250ED1AD0F858
:1017800034312DB2C81AD21A691EFFF7D7FF2C4484
:10179000013CC0EB441038BD38B50446D0F82C519C
:1017A000B0F81631D0F83021B0F81801521B1844A7
:1017B000B4F840301B1A1BB2481B591EFFF7BEFF7E
:1017C000B4F9163100EB431038BD000010B50446E3
:1017D0000FF03AFD0A4A002322600122C4E90C23DB
:1017E000084AE362A2634FF6FF72A2872E2284F8B2
:1017F0004030A4F84230A4F84420A364204610BD31
:10180000BC420408A00F0408002370B58380114B6C
:10181000114D03602A68064692F8581009B1D06C41
:1018200000B990680368DB6A9847B0FA80F42B68C7
:101830006409D86C28B10368DB6A9847002808BFA0
:1018400001242CB9054B064A2C2106483EF0B0FA7B
:10185000304670BD68100408DC6808207413040862
:101860004A150408D213040810B5044626220021A4
:101870003EF027FB2046FFF7D5FE054B20462360B0
:101880000023A36284F82C30012384F8243010BD97
:101890005C430408F8B51A4B018F1B8806468B423F
:1018A00029D9184B1B682BB9174B184A6C211848BB
:1018B0003EF07EFA13F81120164B1B6853F82250A5
:1018C000154B186803F088F92B6807469B6B284670
:1018D00098472B6804469B6C3946284698472B68E6
:1018E00014FB00F45B6A394628469847A4B22044AA
:1018F000A6F84600F8BD0023A0F84630FAE700BF7E
:101900003869082034690820681204082116040880
:10191000AA1204083C690820406908202DE9F04F0C
:1019200004460026A2464FF6FF77B5B017F03AF905
:10193000E04BE6634AF8403B5046FFF7ABFE04F14C
:101940006C0304F5B279184603930EF0B1F84846DB
:10195000FFF768FED84B0DF1D00828F8087DC4F8D1
:101960006431059304F5C8734146C4F88C61184688
:101970001693FFF7A3FE04F5DE7318461D93FFF7D9
:1019800089FE04F5F47318461E93FFF783FE04F5F1
:10199000057318461F93FFF77DFE04F51073184674
:1019A0000D93FFF7A5FE04F5227318462093FFF769
:1019B00071FE04F52D73184604930DF003FC04F535
:1019C000537318460E93FFF793FE04F5657318469C
:1019D0000F93FFF78DFE04F5777341461846179372
:1019E000ADF8C870FFF76AFE04F5816318461093DE
:1019F000FFF77EFE04F58A63414618461893ADF85A
:101A0000C870FFF75BFE04F27C4318461193FFF7A2
:101A10006FFE04F2C44318462193FFF73BFE04F522
:101A20009E6318461293FFF763FE04F5A7631846FA
:101A30002293FFF72FFEA14A04F26C5304F5B3651D
:101A4000C4F838251846C4F86465A4F868654146AA
:101A50001393ADF8C87011F05DFA4B2128460FF0D2
:101A6000B9FF0123964A3146C4F8982504F5DD6292
:101A7000C4F8D436C4F8D866C4F8DC26C4F8E066E6
:101A80004A222846FFF7FEF88E4A04F61403A4F80B
:101A9000E466C4F89825184624930FF0D5FB01237B
:101AA000C4F844380A23C4F848384FF00103864A82
:101AB00084F84C38C4F8142804F65402C4F840687A
:101AC000C4F8506810462592FFF780FE7F4A04F55F
:101AD000136BC4F8542804F50A6210462692FFF7E7
:101AE00075FE7B4AC4F8A02804F6EC021046279243
:101AF0000FF0AAFB774AC4F8EC284FF0020284F8F2
:101B0000182904F61C1210462892FFF77DFE724A2F
:101B1000C4F82869C4F81C292432C4F8242958467A
:101B2000FFF780FD059B04F65C124146C4F830398E
:101B3000C4F8586910461992ADF8C870FFF7BEFD99
:101B400004F6881210462392FFF7A4FD04F6B4129F
:101B500010460592FFF7CCFD04F6FC1210461A92CF
:101B6000FFF782FE5D4B04F63422C4F8FC39A4F87A
:101B70002A7AA4F82C7A84F82E7AA4F8307A1046BF
:101B800007930692FFF7B4FD04F67C2210461B92E1
:101B9000FFF76AFE079B04F6B422C4F87C3AA4F867
:101BA000AA7AA4F8AC7A84F8AE7AA4F8B07A10468F
:101BB0000792FFF79DFD04F6FC2210460892FFF7FE
:101BC00097FD04F6443210460992FFF791FD04F6A2
:101BD0008C3210460A92FFF78BFD04F6D4321C9229
:101BE000C4F8E82B2422C4F8EC2B0122C4F8F02B13
:101BF0002822C4F8FC2B0122394BC4F8002CC4F86D
:101C0000D43B384B04F60C42C4F8E43BC4F8F43B34
:101C10001C9BA4F8E06BC4F8F83BC4F8046CC4F84F
:101C2000086C10460B92FFF71FFE2F4B04F64C4238
:101C3000C4F80C3CA4F83A7CA4F83C7CA4F83E7CA4
:101C4000A4F8407C84F8427C84F8436C84F8446CAB
:101C5000C4F8486C104614930C92FFF705FE149BD1
:101C600004F68C42C4F84C3CA4F87A7CA4F87C7C42
:101C7000A4F87E7CA4F8807C84F8827C84F8836C51
:101C800084F8846CC4F8886C1046149212F092FBAD
:101C900004F6D4421046159212F08CFB42F6E06135
:101CA00004F61C5013F028FB4FF4F0733246314613
:101CB0001CE000BFB0140408D83A040830460408F9
:101CC000343E040888100408B00F04087C4104085E
:101CD0001C420408FC400408843D0408CC4304086A
:101CE0003C12040824120408784704085046009364
:101CF0004FF44873FFF7BBFC4FF07F42231D18469B
:101D00005146A26629930DF01FFB324631460398D7
:101D1000FFF7A0FC0623ADF8C4300723424631A9E3
:101D20000398ADF8C8300DF065FF4FF4E4724FF43E
:101D3000BE7103980DF009FE322103980DF08BFD62
:101D4000322103980DF0FFFDD94B3246C4F86C31B7
:101D500031461698FFF77EFC4FF00D02414616986B
:101D6000ADF8C82012F0EEF9169948460DF0ECFADD
:101D700040F24D13BC27DFF84CA3672200932721C4
:101D80004FF4A6731D98FFF772FCC4F8E4A184F821
:101D9000E2711D9948460DF0D7FAA4236A220093F8
:101DA0004FF4C77140F26F131E98FFF760FCC4F840
:101DB00010A284F80E721E9948460DF0C5FA292328
:101DC0006A2200934FF4C77140F26F131F98FFF718
:101DD0004EFCB84B1F99C4F83C3248460DF0B4FA9B
:101DE000722240F29F110D98FFF734FCB24A2AAFDD
:101DF0003846C4F87022A4F874620D9911F034FBCF
:101E000097E8070004F51F7383E807001023DFF845
:101E1000B8A241460D98ADF8CC30CDF8C8A011F06D
:101E2000BDFD0D9948460DF08FFA3423172200931B
:101E30001F2140F2DE232098FFF719FC6FF01600F7
:101E40009E4B84F8AE02C4F8B032209948460DF09B
:101E50007BFA21217E230A46009104984FF41C71DD
:101E6000FFF705FC944904980DF0DAF80F2341467A
:101E70000498ADF8CC30CDF8C8A00DF0ECF80121F5
:101E800004980DF0EDF90A220323114684F8E33299
:101E9000049833460DF0E7F9049948460DF054FADA
:101EA0001F2240F225110E98FFF7D4FB4FF0FF33AD
:101EB0003846C4F87C33A4F880630E9911F0D4FA44
:101EC00097E8070004F5627383E807000E23414694
:101ED0000E98ADF8CC30CDF8C8A011F05FFD0E998A
:101EE00048460DF031FA26222F210F98FFF7B2FB5A
:101EF000714A3846C4F8C423A4F8C8630F9911F096
:101F0000B3FA97E8070004F5747383E807004FF00D
:101F10000D010F98ADF8CC104146CDF8C8A011F0D6
:101F20003DFD0F9948460DF00FFA9E2240F2A51193
:101F30001798FFF78FFB4FF00B011798ADF8C810FB
:101F4000414612F0FFF8179948460DF0FDF9A62218
:101F500040F2D3111098FFF77DFB4FF07F4C3846CD
:101F6000C4F838C4A4F83C64109911F07DFA97E8DD
:101F7000070004F2444383E807000C23414610980D
:101F8000ADF8CC300493CDF8C8A011F007FD10993E
:101F900048460DF0D9F9D82240F2A3111898FFF75E
:101FA00059FB049B41461898ADF8C83012F0CAF8A6
:101FB000189948460DF0C8F9E4224FF4EC711198D5
:101FC000FFF748FB4FF07F4C3846C4F8ACC4A4F888
:101FD000B064119911F048FA97E8070004F5976387
:101FE00083E807004FF00B011198ADF8CC10414683
:101FF000CDF8C8A011F0D2FC119948460DF0A4F913
:102000004C234FF4B572009327214FF4A673219807
:10201000FFF72DFB274B2199C4F8EC3448460DF00F
:1020200093F94FF4C2723A211298FFF713FB224A38
:102030003846C4F82025A4F82465129911F014FA42
:1020400097E80700CDF8C8A04FF00A0A8E2704F2DF
:102050002C5383E8070041461298ADF8CCA011F04C
:102060009DFC129948460DF06FF9009740F26F13EE
:1020700040F229124FF4C7712298FFF7F8FA4FF097
:1020800002026FF016000B4BA4F86825C4F8603507
:102090000B4B84F85E05C4F86435229948460DF070
:1020A00053F941461398ADF8C8A012F04BF80DE073
:1020B0002003E001EBEBEBFF4B664AFFC2DEC1FF02
:1020C000859F84FFC6E0C5FFA00F04084FF484730A
:1020D00078220093422140F217131398FFF7C7FAB2
:1020E0003146139810F0D1FE139948460DF02CF9A3
:1020F00040F26F13009740F229124FF4C77128463F
:10210000FFF7B5FA324601212846FEF778FF31463F
:102110004A222846FEF7B6FD1A230A2700932122F9
:102120003346092128460FF006FC33463246314635
:10213000009628460FF002FB28220A212846FEF7C7
:102140002EFE4FF00103D4F84418F84E07FB01F0BF
:102150000028B8BF4042012284F84C38C4F84068D7
:10216000C4F848080FF09AFC0123C4F84808C4F8E2
:102170004438249928460FF0ECFA0823D4F8841840
:10218000012207FB01F00028B8BF4042A4F89038B4
:10219000C4F88808C4F880680FF080FC0123C4F8F4
:1021A0008808C4F88438259928460FF0F6FA0923E0
:1021B000D4F8D018012207FB01F00028B8BF404234
:1021C000A4F8DC38C4F8D408C4F8CC680FF066FC76
:1021D0000123C4F8D408C4F8D038269928460FF053
:1021E000CAFAD34B2799C4F8283945F6BA53A4F84C
:1021F0002C39289B2846C4F814394FF0020384F880
:1022000018390FF0A6FAD4F8CC359FEDCA7A07EE4C
:10221000903AF8EEE77A67EE877AF5EEC07AF1EE5B
:1022200010FAC1F25982B6EE007A77EE877AFDEEA7
:10223000E77A17EE901A28460FF08AFCD4F8CC35CE
:102240009FEDBD7A07EE903AF8EEE77A67EE877A6F
:10225000F5EEC07AF1EE10FAC1F25382B6EE007AD2
:1022600077EE877AFDEEE77A17EE901A28460FF0A0
:102270006FFCD4F8CC359FEDB17A07EE903AF8EECA
:10228000E77A67EE877AF5EEC07AF1EE10FAC1F2DE
:102290004D82B6EE007A77EE877AFDEEE77A17EE9A
:1022A000901A28460FF054FCD4F8CC359FEDA47A50
:1022B00007EE903AF8EEE77A67EE877AF5EEC07AA5
:1022C000F1EE10FAC1F24782B6EE007A77EE877A25
:1022D000FDEEE77A17EE901A28460FF039FCD4F895
:1022E000CC359FED987A07EE903AF8EEE77A67EEF4
:1022F000877AF5EEC07AF1EE10FAC1F24182B6EEBD
:10230000007A77EE877AFDEEE77A17EE901A284684
:102310000FF01EFCD4F8CC359FED8B7A07EE903A87
:10232000F8EEE77A67EE877AF5EEC07AF1EE10FA0A
:10233000C1F23B82B6EE007A77EE877AFDEEE77A5D
:1023400017EE901A28460FF003FCD4F8CC359FED19
:102350007F7A07EE903AF8EEE77A67EE877AF5EE45
:10236000C07AF1EE10FAC1F23582B6EE007A77EE5D
:10237000877AFDEEE77A17EE901A28460FF0E8FB11
:10238000D4F8CC359FED727A07EE903AF8EEE77A02
:1023900067EE877AF5EEC07AF1EE10FAC1F22F827D
:1023A000B6EE007A77EE877AFDEEE77A17EE901AAE
:1023B00028460FF0CDFBD4F8CC359FED667A07EEBA
:1023C000903AF8EEE77A67EE877AF5EEC07AF1EEAA
:1023D00010FAC1F22982B6EE007A77EE877AFDEE26
:1023E000E77A17EE901A28460FF0B2FBD4F8CC35F6
:1023F0009FED597A07EE903AF8EEE77A67EE877A22
:10240000F5EEC07AF1EE10FAC1F22382B6EE007A50
:1024100077EE877AFDEEE77A17EE901A28460FF0EE
:1024200097FBD4F8CC359FED4D7A07EE903AF8EE55
:10243000E77A67EE877AF5EEC07AF1EE10FAC1F22C
:102440001D82B6EE007A77EE877AFDEEE77A17EE18
:10245000901A28460FF07CFBD4F8CC359FED407ADB
:1024600007EE903AF8EEE77A67EE877AF5EEC07AF3
:10247000F1EE10FAC1F21782B6EE007A77EE877AA3
:10248000FDEEE77A17EE901A28460FF061FBD4F8BC
:10249000CC359FED347A07EE903AF8EEE77A67EEA6
:1024A000877AF5EEC07AF1EE10FAC1F21182B6EE3B
:1024B000007A77EE877AFDEEE77A17EE901A2846D3
:1024C0000FF046FBD4F8CC359FED277A07EE903A13
:1024D000F8EEE77A67EE877AF5EEC07AF1EE10FA59
:1024E000C1F20B82B6EE007A77EE877AFDEEE77ADC
:1024F00017EE901A28460FF02BFBD4F8CC359FED41
:102500001B7A07EE903AF8EEE77A67EE877AF5EEF7
:10251000C07AF1EE10FAC1F20582B6EE007A77EEDB
:10252000877AFDEEE77A17EE901A47E0C59714FF19
:10253000D6B65CFF375AD5411BB2004270A2144296
:1025400033761E420EB819428E720742B99FDB41A4
:10255000FF27AB41D3078D41F281884114DC9941BB
:10256000FC5DB441AD23C841903DC941A20BB541CA
:1025700057849341ECAF674120C14B41985D664160
:102580007FB09A414AD2D041FC0902421C1012424B
:10259000C532144223B20942F84DF141D792D241DB
:1025A00060B6C441727FCC41A301E4418155FD4135
:1025B000186904425019FC413BEAD64128460FF005
:1025C000C7FAD4F8CC351FED167A07EE903AF8EE3C
:1025D000E77A67EE877AF5EEC07AF1EE10FAC1F28B
:1025E000B681B6EE007A77EE877AFDEEE77A17EEDF
:1025F000901A28460FF0ACFAD4F8CC351FED237AA8
:1026000007EE903AF8EEE77A67EE877AF5EEC07A51
:10261000F1EE10FAC1F2B081B6EE007A77EE877A69
:10262000FDEEE77A17EE901A28460FF091FAD4F8EB
:10263000CC351FED2F7A07EE903AF8EEE77A67EE89
:10264000877AF5EEC07AF1EE10FAC1F2AA81B6EE01
:10265000007A77EE877AFDEEE77A17EE901A284631
:102660000FF076FAD4F8CC351FED3C7A07EE903AAD
:10267000F8EEE77A67EE877AF5EEC07AF1EE10FAB7
:10268000C1F2A481B6EE007A77EE877AFDEEE77AA2
:1026900017EE901A28460FF05BFAD4F8CC351FEDF0
:1026A000487A07EE903AF8EEE77A67EE877AF5EE29
:1026B000C07AF1EE10FAC1F29E81B6EE007A77EEA2
:1026C000877AFDEEE77A17EE901A28460FF040FA67
:1026D000D4F8CC351FED557A07EE903AF8EEE77A4C
:1026E00067EE877AF5EEC07AF1EE10FAC1F29881C2
:1026F000B6EE007A77EE877AFDEEE77A17EE901A5B
:1027000028460FF025FAD4F8CC351FED617A07EE94
:10271000903AF8EEE77A67EE877AF5EEC07AF1EE56
:1027200010FAC1F29281B6EE007A77EE877AFDEE6A
:10273000E77A17EE901A28460FF00AFAD4F8CC354B
:102740001FED6E7A07EE903AF8EEE77A67EE877A39
:10275000F5EEC07AF1EE10FAC1F28C81B6EE007A95
:1027600077EE877AFDEEE77A17EE901A28460FF09B
:10277000EFF9D4F8CC351FED7A7A07EE903AF8EEFF
:10278000E77A67EE877AF5EEC07AF1EE10FAC1F2D9
:102790008681B6EE007A77EE877AFDEEE77A17EE5D
:1027A000901A28460FF0D4F9D4F8CC351FED877A6B
:1027B00007EE903AF8EEE77A67EE877AF5EEC07AA0
:1027C000F1EE10FAC1F28081B6EE007A77EE877AE8
:1027D000FDEEE77A17EE901A28460FF0B9F9D4F813
:1027E000CC351FED937A07EE903AF8EEE77A67EE74
:1027F000877AF5EEC07AF1EE10FAC1F27A81B6EE80
:10280000007A77EE877AFDEEE77A17EE901A28467F
:102810000FF09EF9D4F8CC351FEDA07A07EE903A70
:10282000F8EEE77A67EE877AF5EEC07AF1EE10FA05
:10283000C1F27481B6EE007A77EE877AFDEEE77A20
:1028400017EE901A28460FF083F9D4F8CC351FED17
:10285000AC7A07EE903AF8EEE77A67EE877AF5EE13
:10286000C07AF1EE10FAC1F26E81B6EE007A77EE20
:10287000877AFDEEE77A17EE901A28460FF068F98E
:10288000D4F8CC351FEDB97A07EE903AF8EEE77A36
:1028900067EE877AF5EEC07AF1EE10FAC1F2688140
:1028A000B6EE007A77EE877AFDEEE77A17EE901AA9
:1028B00028460FF04DF9D4F8CC351FEDC57A07EE58
:1028C000903AF8EEE77A67EE877AF5EEC07AF1EEA5
:1028D00010FAC1F26281B6EE007A77EE877AFDEEE9
:1028E000E77A17EE901A28460FF032F9D4F8CC3573
:1028F0001FEDD27A07EE903AF8EEE77A67EE877A24
:10290000F5EEC07AF1EE10FAC1F25C81B6EE007A13
:1029100077EE877AFDEEE77A17EE901A28460FF0E9
:1029200017F9D4F8CC351FEDDE7A07EE903AF8EEC1
:10293000E77A67EE877AF5EEC07AF1EE10FAC1F227
:102940005681B6EE007A77EE877AFDEEE77A17EEDB
:10295000901A28460FF0FCF8D4F8CC351FEDEB7A2E
:1029600007EE903AF8EEE77A67EE877AF5EEC07AEE
:10297000F1EE10FAC1F25081B6EE007A77EE877A66
:10298000FDEEE77A17EE901A28460FF0E1F8D4F83A
:10299000CC351FEDF77A07EE903AF8EEE77A67EE5E
:1029A000877AF5EEC07AF1EE10FAC1F24A81B6EEFE
:1029B000007A77EE877AFDEEE77A17EE901A2846CE
:1029C0000FF0C6F8D4F8CC359FEDFE7A07EE903ABA
:1029D000F8EEE77A67EE877AF5EEC07AF1EE10FA54
:1029E000C1F24481B6EE007A77EE877AFDEEE77A9F
:1029F00017EE901A28460FF0ABF8D4F8CC359FEDBF
:102A0000F27A07EE903AF8EEE77A67EE877AF5EE1B
:102A1000C07AF1EE10FAC1F23E81B6EE007A77EE9E
:102A2000877AFDEEE77A17EE901A28460FF090F8B5
:102A3000D4F8CC359FEDE57A07EE903AF8EEE77AD8
:102A400067EE877AF5EEC07AF1EE10FAC1F23881BE
:102A5000B6EE007A77EE877AFDEEE77A17EE901AF7
:102A600028460FF075F8D4F8CC359FEDD97A07EEEB
:102A7000903AF8EEE77A67EE877AF5EEC07AF1EEF3
:102A800010FAC1F23281B6EE007A77EE877AFDEE67
:102A9000E77A17EE901A28460FF05AF8D4F8CC359A
:102AA0009FEDCC7A07EE903AF8EEE77A67EE877AF8
:102AB000F5EEC07AF1EE10FAC1F22C81B6EE007A92
:102AC00077EE877AFDEEE77A17EE901A28460FF038
:102AD0003FF8D4F8CC359FEDC07A07EE903AF8EE87
:102AE000E77A67EE877AF5EEC07AF1EE10FAC1F276
:102AF0002681B6EE007A77EE877AFDEEE77A17EE5A
:102B0000901A28460FF024F8D4F8CC359FEDB37A0C
:102B100007EE903AF8EEE77A67EE877AF5EEC07A3C
:102B2000F1EE10FAC1F22081B6EE007A77EE877AE4
:102B3000FDEEE77A17EE901A28460FF009F8D4F860
:102B4000CC359FEDA77A07EE903AF8EEE77A67EE7C
:102B5000877AF5EEC07AF1EE10FAC1F21A81B6EE7C
:102B6000007A77EE877AFDEEE77A17EE901A28461C
:102B70000EF0EEFFD4F8CC359FED9A7A07EE903A3E
:102B8000F8EEE77A67EE877AF5EEC07AF1EE10FAA2
:102B9000C1F21481B6EE007A77EE877AFDEEE77A1D
:102BA00017EE901A28460EF0D3FFD4F8CC359FEDDF
:102BB0008E7A07EE903AF8EEE77A67EE877AF5EECE
:102BC000C07AF1EE10FAC1F20E81B6EE007A77EE1D
:102BD000877AFDEEE77A17EE901A28460EF0B8FFD6
:102BE000D4F8CC359FED817A07EE903AF8EEE77A8B
:102BF00067EE877AF5EEC07AF1EE10FAC1F208813D
:102C0000B6EE007A77EE877AFDEEE77A17EE901A45
:102C100028460EF09DFFD4F8CC359FED757A07EE6F
:102C2000903AF8EEE77A67EE877AF5EEC07AF1EE41
:102C300010FAC1F20281B6EE007A77EE877AFDEEE5
:102C4000E77A17EE901A28460EF082FFD4F8CC35BA
:102C50009FED687A07EE903AF8EEE77A67EE877AAA
:102C6000F5EEC07AF1EE10FAC1F2FC80B6EE007A11
:102C700077EE877AFDEEE77A17EE901A28460EF087
:102C800067FFD4F8CC359FED5C7A07EE903AF8EE0A
:102C9000E77A67EE877AF5EEC07AF1EE10FAC1F2C4
:102CA000F680B6EE007A77EE877AFDEEE77A17EED9
:102CB000901A28460EF04CFFD4F8CC359FED4F7A91
:102CC00007EE903AF8EEE77A67EE877AF5EEC07A8B
:102CD000F1EE10FAC1F2F080B6EE007A77EE877A64
:102CE000FDEEE77A17EE901A28460EF031FFD4F881
:102CF000CC359FED437A07EE903AF8EEE77A67EE2F
:102D0000877AF5EEC07AF1EE10FAC1F2EA80B6EEFB
:102D1000007A77EE877AFDEEE77A17EE901A28466A
:102D20000EF016FFD4F8CC359FED367A07EE903AC8
:102D3000F8EEE77A67EE877AF5EEC07AF1EE10FAF0
:102D4000C1F2E480B6EE007A77EE877AFDEEE77A9C
:102D500017EE901A28460EF0FBFED4F8CC359FED06
:102D60002A7A07EE903AF8EEE77A67EE877AF5EE80
:102D7000C07AF1EE10FAC1F2DE80B6EE007A77EE9C
:102D8000877AFDEEE77A17EE901A28460EF0E0FEFD
:102D9000D4F8CC359FED1D7A07EE903AF8EEE77A3D
:102DA00067EE877AF5EEC07AF1EE10FAC1F2D880BC
:102DB000B6EE007A77EE877AFDEEE77A17EE901A94
:102DC0004CE000BFD8A4A34168796641B1A22C4170
:102DD0002FB42C41A09A63416FE49C4143A7C641A4
:102DE0006C15E041D85EE241B184D1415148BA410D
:102DF0009750AC41F30EB3412176D041F7CCFB4163
:102E0000649212423AFE1D42F61D1B4244460A429B
:102E1000FD30E2413D6CB0410D6B8F41C1B3874144
:102E20003CE59641A222B141B988C641C54FCA418D
:102E30001086B84155EA974160306E41ED754C41BE
:102E4000F7F55F4100AF944156E5C9416B7DFE4106
:102E500078CB1042DFB214429A820B4228460EF021
:102E600077FED4F8CC351FED167A07EE903AF8EEDF
:102E7000E77A67EE877AF5EEC07AF1EE10FAC1F2E2
:102E80008480B6EE007A77EE877AFDEEE77A17EE69
:102E9000901A28460EF05CFED4F8CC351FED237A4C
:102EA00007EE903AF8EEE77A67EE877AF5EEC07AA9
:102EB000F1EE10FAC1F27E80B6EE007A77EE877AF4
:102EC000FDEEE77A17EE901A28460EF041FED4F890
:102ED000CC351FED2F7A07EE903AF8EEE77A67EEE1
:102EE000877AF5EEC07AF1EE10FAC1F27880B6EE8C
:102EF000007A77EE877AFDEEE77A17EE901A284689
:102F00000EF026FED4F8CC351FED3C7A07EE903A51
:102F1000F8EEE77A67EE877AF5EEC07AF1EE10FA0E
:102F2000C1F27280B6EE007A77EE877AFDEEE77A2C
:102F300017EE901A28460EF00BFED4F8CC351FED94
:102F4000487A07EE903AF8EEE77A67EE877AF5EE80
:102F5000C07AF1EE10FAC1F26C80B6EE007A77EE2C
:102F6000877AFDEEE77A17EE901A28460EF0F0FD0C
:102F7000D4F8CC351FED557A07EE903AF8EEE77AA3
:102F800067EE877AF5EEC07AF1EE10FAC1F266804C
:102F9000B6EE007A77EE877AFDEEE77A17EE901AB2
:102FA00028460EF0D5FDD4F8CC351FED617A07EE3A
:102FB000903AF8EEE77A67EE877AF5EEC07AF1EEAE
:102FC00010FAC1F26080B6EE007A77EE877AFDEEF5
:102FD000E77A17EE901A28460EF0BAFDD4F8CC35F1
:102FE0001FED6E7A07EE903AF8EEE77A67EE877A91
:102FF000F5EEC07AF1EE10FAC1F25A80B6EE007A20
:1030000077EE877AFDEEE77A17EE901A28460EF0F3
:103010009FFDD4F8CC351FED7A7A07EE903AF8EEA2
:10302000E77A67EE877AF5EEC07AF1EE10FAC1F230
:103030005480B6EE007A77EE877AFDEEE77A17EEE7
:10304000901A28460EF084FDD4F8CC351FED877A0F
:1030500007EE903AF8EEE77A67EE877AF5EEC07AF7
:10306000F1EE10FAC1F24E80B6EE007A77EE877A72
:10307000FDEEE77A17EE901A28460EF069FDD4F8B7
:10308000CC351FED937A07EE903AF8EEE77A67EECB
:10309000877AF5EEC07AF1EE10FAC1F24880B6EE0A
:1030A000007A77EE877AFDEEE77A17EE901A2846D7
:1030B0000EF04EFDD4F8CC351FEDA07A07EE903A15
:1030C000F8EEE77A67EE877AF5EEC07AF1EE10FA5D
:1030D000C1F24280B6EE007A77EE877AFDEEE77AAB
:1030E00017EE901A28460EF033FDD4F8CC351FEDBC
:1030F000AC7A07EE903AF8EEE77A67EE877AF5EE6B
:10310000C07AF1EE10FAC1F23C80B6EE007A77EEAA
:10311000877AFDEEE77A17EE901A28460EF018FD32
:10312000D4F8CC351FEDB97A07EE903AF8EEE77A8D
:1031300067EE877AF5EEC07AF1EE10FAC1F23680CA
:10314000B6EE007A77EE877AFDEEE77A17EE901A00
:1031500028460EF0FDFCD4F8CC351FEDC57A07EEFD
:10316000903AF8EEE77A67EE877AF5EEC07AF1EEFC
:1031700010FAC1F23080B6EE007A77EE877AFDEE73
:10318000E77A17EE901A28460EF0E2FCD4F8CC3518
:103190001FEDD27A07EE903AF8EEE77A67EE877A7B
:1031A000F5EEC07AF1EE10FAC1F22A80B6EE007A9E
:1031B00077EE877AFDEEE77A17EE901A28460EF042
:1031C000C7FCD4F8CC351FEDDE7A07EE903AF8EE66
:1031D000E77A67EE877AF5EEC07AF1EE10FAC1F27F
:1031E0002480B6EE007A77EE877AFDEEE77A17EE66
:1031F000901A28460EF0ACFCD4F8CC351FEDEB7AD3
:1032000007EE903AF8EEE77A67EE877AF5EEC07A45
:10321000F1EE10FAC1F21E80B6EE007A77EE877AF0
:10322000FDEEE77A17EE901A28460EF091FCD4F8DE
:10323000CC351FEDF77A07EE903AF8EEE77A67EEB5
:10324000877AF5EEC07AF1EE10FAC1F21880B6EE88
:10325000007A77EE877AFDEEE77A17EE901A284625
:103260000EF076FCD4F8CC359FEDD87A07EE903A84
:10327000F8EEE77A67EE877AF5EEC07AF1EE10FAAB
:10328000C1F21280B6EE007A77EE877AFDEEE77A29
:1032900017EE901A28460EF05BFCD4F8CC359FED63
:1032A000CC7A07EE903AF8EEE77A67EE877AF5EE99
:1032B000C07AF1EE10FAC1F20C80B6EE007A77EE29
:1032C000877AFDEEE77A17EE901A28460EF040FC5A
:1032D000D4F8CC359FEDBF7A07EE903AF8EEE77A56
:1032E00067EE877AF5EEC07AF1EE10FAC1F2068049
:1032F000B6EE007A77EE877AFDEEE77A17EE901A4F
:1033000028460EF025FC294648460CF01DF8494693
:1033100003980CF0E6FC0022AF4B1146C4F8383994
:103320001998FEF797F90D230DF1D00828F8083DFC
:103330004146199810F006FF199958460CF004F808
:10334000342317220093239840F2DE231F21FEF737
:103350008EF9A24B0026C4F8B039E923239984F8EA
:10336000AE3958460BF0F0FF1F2205984FF49071CC
:10337000FEF770F99A4B2AADC4F8E439059928464E
:10338000A4F8E86910F070F8059A4FF0080902F106
:103390003C0395E8070083E8070007234FF0090A7C
:1033A000904F41460598ADF8CC30329710F0F6FAC0
:1033B000059958460BF0C8FF1A9878224FF4077108
:1033C000FEF748F94246A4F8309A31A91A98ADF8A8
:1033D000C4A0ADF8C89010F009FD1A9958460BF03A
:1033E000B3FF28238C220093069840F26F136121CB
:1033F000FEF73DF97A4B0699C4F8643A2846A4F8DA
:10340000686A10F031F8069A02F13C0395E807006B
:1034100083E80700062341460698ADF8CC30329782
:1034200010F0BCFA069958460BF08EFF1B98C82284
:1034300040F21E21FEF70EF94246A4F8B09A31A9D7
:103440001B98ADF8C4A0ADF8C89010F0CFFC1B9944
:1034500058460BF079FF2623D3220093079840F2B9
:103460006F135221FEF703F95D4B0799C4F8E43A54
:103470002846A4F8E86A0FF0F7FF079A4FF004090E
:1034800002F13C0395E8070083E807004FF00502CE
:1034900041460798ADF8CC20329710F07FFA079993
:1034A00058460BF051FF2B2340F21F12009308984F
:1034B00040F26F133A21FEF7DAF8494B0899C4F845
:1034C0002C3B2846A4F8306B0FF0CEFF089A4FF043
:1034D000030A02F13C0395E8070083E80700414630
:1034E00008983297ADF8CC9010F058FA08995846E1
:1034F0000BF02AFF1A22099800924D2340F227125E
:103500004FF4E871FEF7B3F8354B0999C4F8743BF2
:103510002846A4F8786B0FF0A7FF099A02F13C0344
:1035200095E8070083E80700414609983297ADF80F
:10353000CCA010F033FA099958460BF005FF1A2277
:103540000A9800924D2340F2271240F25521FEF7CF
:103550008EF8234B0A99C4F8BC3B2846A4F8C06BEC
:103560000FF082FF95E80700022532974FF005071C
:103570000A9BADF8CC503C3383E8070041460A98DB
:1035800010F00CFA0A9958460BF0DEFE0B984FF437
:10359000917240F2A221FEF75DF831AB30AA2FA95B
:1035A0000B98CDF80080ADF8BC50ADF8C870ADF800
:1035B000C0A0ADF8C49010F02CFF31460B9810F06D
:1035C000C9FF0B991C9884F8446C0DE049AEF54195
:1035D000ABACD541AC3FC5412003E001C2DEC1FF29
:1035E0004B664AFFA00F0408FDF7BAFF0B99584637
:1035F0000BF0AAFE0C984FF4917240F21D21FEF7D9
:1036000029F8ADF8C8700127ADF8BC504FF0FF3570
:1036100031AB30AA2FA90C98CDF80080ADF8C0A02E
:10362000ADF8C49010F0F5FE31460C9810F092FF02
:103630000C991C9884F8846CFDF792FF0C995846FD
:103640000BF082FE14984FF4B6727921FEF702F85F
:10365000424631A91498ADF8C460ADF8C87010F0B6
:10366000C5FB1498A4F8C47CFEF714F914995846C5
:10367000C4F8C85CC4F8CC5C0BF066FE15984FF437
:10368000B6724FF4EC71FDF7E5FF424631A915988B
:10369000ADF8C460ADF8C87010F0A8FB1598A4F898
:1036A0000C6DFEF7F7F815995846C4F8105DC4F88C
:1036B000145D0BF049FE594603980CF012FB31469D
:1036C00003980CF0FFFA04EB090003990BF03CFEA1
:1036D000204635B0BDE8F08FBDEEE77AF8EEC76A58
:1036E00077EEE67AF7EE086A77EEA67A17EE103AEA
:1036F000FDEEE77A591E17EE903A0B441946FEF795
:103700009ABDBDEEE77AF8EEC76A77EEE67AF7EE95
:10371000086A77EEA67A17EE103AFDEEE77A591EA0
:1037200017EE903A0B441946FEF7A0BDBDEEE77ABE
:10373000F8EEC76A77EEE67AF7EE086A77EEA67AD1
:1037400017EE103AFDEEE77A591E17EE903A0B4449
:103750001946FEF7A6BDBDEEE77AF8EEC76A77EE2A
:10376000E67AF7EE086A77EEA67A17EE103AFDEEE3
:10377000E77A591E17EE903A0B441946FEF7ACBD96
:10378000BDEEE77AF8EEC76A77EEE67AF7EE086AFA
:1037900077EEA67A17EE103AFDEEE77A591E17EE8D
:1037A000903A0B441946FEF7B2BDBDEEE77AF8EE4B
:1037B000C76A77EEE67AF7EE086A77EEA67A17EE32
:1037C000103AFDEEE77A591E17EE903A0B4419466F
:1037D000FEF7B8BDBDEEE77AF8EEC76A77EEE67A97
:1037E000F7EE086A77EEA67A17EE103AFDEEE77A62
:1037F000591E17EE903A0B441946FEF7BEBDBDEEBA
:10380000E77AF8EEC76A77EEE67AF7EE086A77EEBF
:10381000A67A17EE103AFDEEE77A591E17EE903AA7
:103820000B441946FEF7C4BDBDEEE77AF8EEC76A51
:1038300077EEE67AF7EE086A77EEA67A17EE103A98
:10384000FDEEE77A591E17EE903A0B441946FEF743
:10385000CABDBDEEE77AF8EEC76A77EEE67AF7EE14
:10386000086A77EEA67A17EE103AFDEEE77A591E4F
:1038700017EE903A0B441946FEF7D0BDBDEEE77A3D
:10388000F8EEC76A77EEE67AF7EE086A77EEA67A80
:1038900017EE103AFDEEE77A591E17EE903A0B44F8
:1038A0001946FEF7D6BDBDEEE77AF8EEC76A77EEA9
:1038B000E67AF7EE086A77EEA67A17EE103AFDEE92
:1038C000E77A591E17EE903A0B441946FEF7DCBD15
:1038D000BDEEE77AF8EEC76A77EEE67AF7EE086AA9
:1038E00077EEA67A17EE103AFDEEE77A591E17EE3C
:1038F000903A0B441946FEF7E2BDBDEEE77AF8EECA
:10390000C76A77EEE67AF7EE086A77EEA67A17EEE0
:10391000103AFDEEE77A591E17EE903A0B4419461D
:10392000FEF7E8BDBDEEE77AF8EEC76A77EEE67A15
:10393000F7EE086A77EEA67A17EE103AFDEEE77A10
:10394000591E17EE903A0B441946FEF737BEBDEEEE
:10395000E77AF8EEC76A77EEE67AF7EE086A77EE6E
:10396000A67A17EE103AFDEEE77A591E17EE903A56
:103970000B441946FEF73DBEBDEEE77AF8EEC76A86
:1039800077EEE67AF7EE086A77EEA67A17EE103A47
:10399000FDEEE77A591E17EE903A0B441946FEF7F2
:1039A00043BEBDEEE77AF8EEC76A77EEE67AF7EE49
:1039B000086A77EEA67A17EE103AFDEEE77A591EFE
:1039C00017EE903A0B441946FEF749BEBDEEE77A72
:1039D000F8EEC76A77EEE67AF7EE086A77EEA67A2F
:1039E00017EE103AFDEEE77A591E17EE903A0B44A7
:1039F0001946FEF74FBEBDEEE77AF8EEC76A77EEDE
:103A0000E67AF7EE086A77EEA67A17EE103AFDEE40
:103A1000E77A591E17EE903A0B441946FEF755BE49
:103A2000BDEEE77AF8EEC76A77EEE67AF7EE086A57
:103A300077EEA67A17EE103AFDEEE77A591E17EEEA
:103A4000903A0B441946FEF75BBEBDEEE77AF8EEFE
:103A5000C76A77EEE67AF7EE086A77EEA67A17EE8F
:103A6000103AFDEEE77A591E17EE903A0B441946CC
:103A7000FEF761BEBDEEE77AF8EEC76A77EEE67A4A
:103A8000F7EE086A77EEA67A17EE103AFDEEE77ABF
:103A9000591E17EE903A0B441946FEF767BEBDEE6D
:103AA000E77AF8EEC76A77EEE67AF7EE086A77EE1D
:103AB000A67A17EE103AFDEEE77A591E17EE903A05
:103AC0000B441946FEF76DBEBDEEE77AF8EEC76A05
:103AD00077EEE67AF7EE086A77EEA67A17EE103AF6
:103AE000FDEEE77A591E17EE903A0B441946FEF7A1
:103AF00073BEBDEEE77AF8EEC76A77EEE67AF7EEC8
:103B0000086A77EEA67A17EE103AFDEEE77A591EAC
:103B100017EE903A0B441946FEF779BEBDEEE77AF0
:103B2000F8EEC76A77EEE67AF7EE086A77EEA67ADD
:103B300017EE103AFDEEE77A591E17EE903A0B4455
:103B40001946FEF77FBEBDEEE77AF8EEC76A77EE5C
:103B5000E67AF7EE086A77EEA67A17EE103AFDEEEF
:103B6000E77A591E17EE903A0B441946FEF785BEC8
:103B7000BDEEE77AF8EEC76A77EEE67AF7EE086A06
:103B800077EEA67A17EE103AFDEEE77A591E17EE99
:103B9000903A0B441946FEF78BBEBDEEE77AF8EE7D
:103BA000C76A77EEE67AF7EE086A77EEA67A17EE3E
:103BB000103AFDEEE77A591E17EE903A0B4419467B
:103BC000FEF791BEBDEEE77AF8EEC76A77EEE67AC9
:103BD000F7EE086A77EEA67A17EE103AFDEEE77A6E
:103BE000591E17EE903A0B441946FEF797BEBDEEEC
:103BF000E77AF8EEC76A77EEE67AF7EE086A77EECC
:103C0000A67A17EE103AFDEEE77A591E17EE903AB3
:103C10000B441946FEF79DBEBDEEE77AF8EEC76A83
:103C200077EEE67AF7EE086A77EEA67A17EE103AA4
:103C3000FDEEE77A591E17EE903A0B441946FEF74F
:103C4000A3BEBDEEE77AF8EEC76A77EEE67AF7EE46
:103C5000086A77EEA67A17EE103AFDEEE77A591E5B
:103C600017EE903A0B441946FEF7A9BEBDEEE77A6F
:103C7000F8EEC76A77EEE67AF7EE086A77EEA67A8C
:103C800017EE103AFDEEE77A591E17EE903A0B4404
:103C90001946FEF7AFBEBDEEE77AF8EEC76A77EEDB
:103CA000E67AF7EE086A77EEA67A17EE103AFDEE9E
:103CB000E77A591E17EE903A0B441946FEF7B5BE47
:103CC000BDEEE77AF8EEC76A77EEE67AF7EE086AB5
:103CD00077EEA67A17EE103AFDEEE77A591E17EE48
:103CE000903A0B441946FEF7BBBEBDEEE77AF8EEFC
:103CF000C76A77EEE67AF7EE086A77EEA67A17EEED
:103D0000103AFDEEE77A591E17EE903A0B44194629
:103D1000FEF7C1BEBDEEE77AF8EEC76A77EEE67A47
:103D2000F7EE086A77EEA67A17EE103AFDEEE77A1C
:103D3000591E17EE903A0B441946FEF7C7BEBDEE6A
:103D4000E77AF8EEC76A77EEE67AF7EE086A77EE7A
:103D5000A67A17EE103AFDEEE77A591E17EE903A62
:103D60000B441946FEF7CDBEBDEEE77AF8EEC76A02
:103D700077EEE67AF7EE086A77EEA67A17EE103A53
:103D8000FDEEE77A591E17EE903A0B441946FEF7FE
:103D9000D3BEBDEEE77AF8EEC76A77EEE67AF7EEC5
:103DA000086A77EEA67A17EE103AFDEEE77A591E0A
:103DB00017EE903A0B441946FEF7D9BEBDEEE77AEE
:103DC000F8EEC76A77EEE67AF7EE086A77EEA67A3B
:103DD00017EE103AFDEEE77A591E17EE903A0B44B3
:103DE0001946FEF7DFBEBDEEE77AF8EEC76A77EE5A
:103DF000E67AF7EE086A77EEA67A17EE103AFDEE4D
:103E0000E77A591E17EE903A0B441946FEF7E5BEC5
:103E1000BDEEE77AF8EEC76A77EEE67AF7EE086A63
:103E200077EEA67A17EE103AFDEEE77A591E17EEF6
:103E3000903A0B441946FEF7EBBEBDEEE77AF8EE7A
:103E4000C76A77EEE67AF7EE086A77EEA67A17EE9B
:103E5000103AFDEEE77A591E17EE903A0B441946D8
:103E6000FEF7F1BEBDEEE77AF8EEC76A77EEE67AC6
:103E7000F7EE086A77EEA67A17EE103AFDEEE77ACB
:103E8000591E17EE903A0B441946FEF7F7BEBDEEE9
:103E9000E77AF8EEC76A77EEE67AF7EE086A77EE29
:103EA000A67A17EE103AFDEEE77A591E17EE903A11
:103EB0000B441946FEF7FDBEBDEEE77AF8EEC76A81
:103EC00077EEE67AF7EE086A77EEA67A17EE103A02
:103ED000FDEEE77A591E17EE903A0B441946FEF7AD
:103EE00003BFBDEEE77AF8EEC76A77EEE67AF7EE43
:103EF000086A77EEA67A17EE103AFDEEE77A591EB9
:103F000017EE903A0B441946FEF709BFBDEEE77A6B
:103F1000F8EEC76A77EEE67AF7EE086A77EEA67AE9
:103F200017EE103AFDEEE77A591E17EE903A0B4461
:103F30001946FEF70FBFBDEEE77AF8EEC76A77EED7
:103F4000E67AF7EE086A77EEA67A17EE103AFDEEFB
:103F5000E77A591E17EE903A0B441946FEF715BF43
:103F6000BDEEE77AF8EEC76A77EEE67AF7EE086A12
:103F700077EEA67A17EE103AFDEEE77A591E17EEA5
:103F8000903A0B441946FEF769BFBDEEE77AF8EEAA
:103F9000C76A77EEE67AF7EE086A77EEA67A17EE4A
:103FA000103AFDEEE77A591E17EE903A0B44194687
:103FB000FEF76FBFBDEEE77AF8EEC76A77EEE67AF6
:103FC000F7EE086A77EEA67A17EE103AFDEEE77A7A
:103FD000591E17EE903A0B441946FEF775BFBDEE19
:103FE000E77AF8EEC76A77EEE67AF7EE086A77EED8
:103FF000A67A17EE103AFDEEE77A591E17EE903AC0
:104000000B441946FEF77BBFBDEEE77AF8EEC76AB0
:1040100077EEE67AF7EE086A77EEA67A17EE103AB0
:10402000FDEEE77A591E17EE903A0B441946FEF75B
:1040300081BFBDEEE77AF8EEC76A77EEE67AF7EE73
:10404000086A77EEA67A17EE103AFDEEE77A591E67
:1040500017EE903A0B441946FEF787BFBDEEE77A9C
:10406000F8EEC76A77EEE67AF7EE086A77EEA67A98
:1040700017EE103AFDEEE77A591E17EE903A0B4410
:104080001946FEF78DBFBDEEE77AF8EEC76A77EE08
:10409000E67AF7EE086A77EEA67A17EE103AFDEEAA
:1040A000E77A591E17EE903A0B441946FEF793BF74
:1040B000BDEEE77AF8EEC76A77EEE67AF7EE086AC1
:1040C00077EEA67A17EE103AFDEEE77A591E17EE54
:1040D000903A0B441946FEF799BFBDEEE77AF8EE29
:1040E000C76A77EEE67AF7EE086A77EEA67A17EEF9
:1040F000103AFDEEE77A591E17EE903A0B44194636
:10410000FEF79FBFBDEEE77AF8EEC76A77EEE67A74
:10411000F7EE086A77EEA67A17EE103AFDEEE77A28
:10412000591E17EE903A0B441946FEF7A5BFBDEE97
:10413000E77AF8EEC76A77EEE67AF7EE086A77EE86
:10414000A67A17EE103AFDEEE77A591E17EE903A6E
:104150000B441946FEF7ABBFBDEEE77AF8EEC76A2F
:1041600077EEE67AF7EE086A77EEA67A17EE103A5F
:10417000FDEEE77A591E17EE903A0B441946FEF70A
:10418000B1BFBDEEE77AF8EEC76A77EEE67AF7EEF2
:10419000086A77EEA67A17EE103AFDEEE77A591E16
:1041A00017EE903A0B441946FEF7B7BFBDEEE77A1B
:1041B000F8EEC76A77EEE67AF7EE086A77EEA67A47
:1041C00017EE103AFDEEE77A591E17EE903A0B44BF
:1041D0001946FEF7BDBFBDEEE77AF8EEC76A77EE87
:1041E000E67AF7EE086A77EEA67A17EE103AFDEE59
:1041F000E77A591E17EE903A0B441946FEF7C3BFF3
:10420000BDEEE77AF8EEC76A77EEE67AF7EE086A6F
:1042100077EEA67A17EE103AFDEEE77A591E17EE02
:10422000903A0B441946FEF7C9BFBDEEE77AF8EEA7
:10423000C76A77EEE67AF7EE086A77EEA67A17EEA7
:10424000103AFDEEE77A591E17EE903A0B441946E4
:10425000FEF7CFBFBDEEE77AF8EEC76A77EEE67AF3
:10426000F7EE086A77EEA67A17EE103AFDEEE77AD7
:10427000591E17EE903A0B441946FEF7D5BFBDEE16
:10428000E77AF8EEC76A77EEE67AF7EE086A77EE35
:10429000A67A17EE103AFDEEE77A591E17EE903A1D
:1042A0000B441946FEF7DBBFBDEEE77AF8EEC76AAE
:1042B00077EEE67AF7EE086A77EEA67A17EE103A0E
:1042C000FDEEE77A591E17EE903A0B441946FEF7B9
:1042D000E1BFBDEEE77AF8EEC76A77EEE67AF7EE71
:1042E000086A77EEA67A17EE103AFDEEE77A591EC5
:1042F00017EE903A0B441946FEF7E7BFBDEEE77A9A
:10430000F8EEC76A77EEE67AF7EE086A77EEA67AF5
:1043100017EE103AFDEEE77A591E17EE903A0B446D
:104320001946FEF7EDBF00BF38B504460546054BFC
:1043300044F86C3B10F0EAFF20460BF097FA284651
:1043400038BD00BFB014040810B50446FFF7ECFFF9
:10435000204643F6FC313AF05BF9204610BD704729
:104360007047704741607047704701230372704780
:1043700070477047034610B4C46841686210E40790
:1043800001EB02009B6848BF8A585DF8044B48BFA8
:10439000D358184743682BB183682BB9C06800F025
:1043A00001007047184670470120704710B5044659
:1043B0000C213AF02DF9204610BD10B504464FF4FB
:1043C000AE713AF025F9204610BD10B50446102113
:1043D0003AF01EF9204610BD10B512F063FCBDE89E
:1043E00010400368DB6B1847F8B5044600251746F4
:1043F0000E4612F063FD104BC4F83C511C600F4B8D
:10440000C4F8405123600E4BC4F84851C4F84431FD
:104410000C4BC4F84C511868C4F85051C4F854718E
:10442000C4F85861036829469B689847284600F0FD
:1044300099FB2046F8BD00BF306908207C160408AF
:1044400064160408DC680820064BC0F84801C0F870
:104450004C310023C0F8503100F5A273C0F8403150
:10446000704700BFAD4500082DE9F047074690684A
:104470009946036888461B6A1546DDF820A09847D0
:1044800043F6FB33984205D8A321424B424A4348A6
:104490003BF08EFC686803681B6A98470F2803D8B6
:1044A0003F4B3D4AA421F2E7E86803681B6A98473E
:1044B0000B2803D83B4B384AA521E8E712F0F2FB62
:1044C000043012F02DFCD9F8000010B10368DB684D
:1044D0009847D9F8000010B103681B6898473868FE
:1044E00010B103685B699847D8F8000010B1036801
:1044F0005B689847386810B103681B689847D8F81C
:10450000000010B103689B689847E86800210368C1
:104510005B6A9847044620B1002343600372224B34
:104520000360A868002103685B6A9847064608B1E3
:10453000FCF71AFB6868002103685B6A9847054628
:1045400010B13146FCF7E8FAC9F80040C8F800504D
:104550003E60E5B12B1DCAF80030C5F808A03368ED
:10456000F5633046DB6898472B6828461B689847F8
:104570002146304614F0C2FC236820461B69984748
:10458000236820465B6998472846BDE8F0872B469C
:10459000E1E700BFEC160408011904087A170408C3
:1045A000BB1704085E180408D016040807B5D0F835
:1045B000583100F59E710093D0F85421034B044804
:1045C000FFF752FF03B05DF804FB00BF2469082029
:1045D000206908207047000030B5124C8FB0236866
:1045E00013F001031BD13F2209920F4ACDE90B338F
:1045F00008920E4A0A93CDE906320593042201255A
:10460000CDE901331923CDE9032500931022084990
:10461000084800F06BF8084825603BF0E7FB0548C8
:104620000FB030BD24330620A88304088883040813
:10463000B454040828330620D545000813B50022D9
:1046400049B102AB019203F8052D0268946801AAF2
:10465000A04702B010BD0846FBE7C0897047008A3A
:104660007047C088704780887047807A00F07F006C
:104670007047807AC0097047002070479FED010A9B
:10468000704700BF00000000406A7047806A7047B2
:1046900070478B88C069DB0A0A6850F82300104411
:1046A000704710B5C2B1137BB3B1547BD27A2402E8
:1046B00004F4E0641443026A98B202EB84021388A3
:1046C0008B4202D192F9020010BD05D8013880B2A8
:1046D00004320028F3D1F7E70020F5E710B50446CF
:1046E0002C2139F095FF204610BD000030B504465E
:1046F0008BB0BDF860500895BDF85C5007959DF8EB
:10470000505006959DF84C5005959DF848500495DD
:104710009DF8445003959DF8405002959DF83C50FB
:104720000195BDF83850009513F052FF2046064B16
:104730002360159BE361169B2362199B63621A9B9E
:10474000A3620BB030BD00BF141A0408704700000C
:1047500030B5124C8FB0236813F001031BD13F22F8
:1047600009920F4A012508920E4ACDE90B33CDE993
:1047700006320422CDE903250F220A930593CDE9E1
:1047800001330092122308490848FFF7AFFF084899
:1047900025603BF02BFB05480FB030BD543306209D
:1047A000B08304088C830408687C0408583306200E
:1047B0004D4700087047000030B5124D8FB02B6890
:1047C00013F001031BD13F2209920F4A01240892E2
:1047D0000E4ACDE90B33CDE906320A930593042244
:1047E000CDE901330A23CDE9032400932246084989
:1047F0000848FFF77BFF08482C603BF0F7FA0548B4
:104800000FB030BD843306209883040894830408D5
:104810003C7D040888330620B547000810B5002405
:1048200004600C6014601C6010BD704730B5124D00
:104830008FB02B6813F001031BD13F2209920F4A5E
:10484000012408920E4ACDE90B33CDE906320A93D2
:1048500005930422CDE901332823CDE903240093F5
:10486000224608490848FFF741FF08482C603BF002
:10487000BDFA05480FB030BDB4330620908304085C
:10488000AC83040820800408B83306202B480008B5
:104890007047000030B5124D8FB02B6813F0010344
:1048A0001BD13F2209920F4A012408920E4ACDE9FA
:1048B0000B33CDE906320A9305930422CDE9013387
:1048C0001423CDE903240093224608490848FFF742
:1048D0000DFF08482C603BF089FA05480FB030BD49
:1048E000E43306209C830408B48304083080040861
:1048F000E8330620914800087047000030B5134D9A
:104900008FB02B6813F001031CD13F220992104A8B
:10491000012408920F4ACDE90B33079204220A932F
:10492000CDE90232CDE9053401931E2304940093AE
:104930001C22242308490948FFF7D8FE08482C60A8
:104940003BF054FA05480FB030BD00BF14340620C8
:10495000A0830408B88304084080040818340620A3
:10496000F9480008704710B50446042139F050FE9C
:10497000204610BD08B5062921D8DFE801F004085B
:104980000C1014181C0000F059F8006808BD00F065
:1049900055F84068FAE700F051F88068F6E700F053
:1049A0004DF8C068F2E700F049F80069EEE700F062
:1049B00045F84069EAE700F041F88069E6E7002041
:1049C000E4E7704730B5134C8FB0236813F0010350
:1049D0001CD13F220992104ACDE90B3308920F4AAD
:1049E0000A93CDE90632059304220125CDE901336E
:1049F0001423CDE9032500932022182308490948F0
:104A0000FFF774FE084825603BF0F0F905480FB049
:104A100030BD00BF44340620A4830408BC830408CE
:104A2000C881040848340620C3490008004870477C
:104A3000881A04080F2070471120704700487047FB
:104A40007434062010B5FFF725FF0A4C2060FFF7ED
:104A5000EDFE6060FFF7B0FEA060FFF7BDFDE06017
:104A6000FFF74CFF2061FFF7ADFF6061FFF770FEBD
:104A7000A06110BD743406200020704700207047EC
:104A80000EB403B503AB53F8042B0021019313F0CC
:104A90009FF802B05DF804EB03B070470CB407B5A3
:104AA00004AB53F8042B019313F092F803B05DF8B4
:104AB00004EB02B07047000010B5436C044673B3BA
:104AC000038F2BB9C521184B184A19483BF070F9D0
:104AD000C38E00EB43035B8C0BB314F0D8FF238F22
:104AE000012B03D8134B144ACB21EEE7E28E40F69C
:104AF0003F10531C9BB21946092B88BFA3F10A0132
:104B000004EB4101498C814209D10A2B28BF0023C3
:104B100004EB4202508C04EB43035884518420463A
:104B2000BDE8104014F0B6BEB41B0408E11C040834
:104B3000BD1B0408011C04080F1C040814F071BEFE
:104B400010B586B002AC84E806001A460AAB05939D
:104B50000193099B21460093089B11F06BFC06B062
:104B600010BD000038B5D8B9114B12481B68124966
:104B7000BBB11A689C681A4402605A681C441A4403
:104B80000A606CB100220D4B1A80FFF757FF0546F3
:104B9000FFF752FF0A4B1C600A4B1D600A4B18803E
:104BA00038BD0A4B03600A4B0B600A4B1C68E8E7F0
:104BB0009034062094340620983406209C34062035
:104BC000346908203C690820386908202C840408CE
:104BD000C083040828840408044B1B6853F8210090
:104BE000034B1B6803EB4000704700BF983406205E
:104BF00094340620012380F8781080F879307047CB
:104C0000002070474164003118BF0121014B197029
:104C1000704700BFDB68082000207047836B0BB132
:104C20000846184770474FF6FF70704740680368A2
:104C30009B69184770477047704700009022044BEB
:104C400083F8762383F8872383F88423704700BF93
:104C500000E100E0094A0A49D3680A48C3F30A039D
:104C6000013B9BB20B801169C1F30A01013901803C
:104C70001364536B43F001035363704700680140B2
:104C8000D6340620D4340620014B986A704700BF02
:104C9000846801400122024B996243F8602C7047FE
:104CA000846801407047242303FB0101002381F83D
:104CB0002430704780F82C10704710B5044630211E
:104CC00039F0A6FC204610BD38B504464FF400511B
:104CD00016F0DAFB23685D6E11F0E4FF0146204612
:104CE000A8472368064AD3F888500649002320467F
:104CF000A8476268044B5A64044A536038BD00BF39
:104D0000B84B1420B8930820D8340620A4340620C9
:104D100010B531B90A4B0B4A40F2D2210A483BF098
:104D200047F8C0E90F12003218BF012207490A7084
:104D300002681946BDE81040D2F88C20104700BF29
:104D4000B21E0408432C0408EA1E0408DA6808208E
:104D500008B5094B1B888B4203D8084B1B8893422C
:104D600005D9074B074A9E2107483BF021F8074B1E
:104D70001980074B1A8008BDD0680820D268082027
:104D80004F1E0408002C0408EA1E0408D6680820F8
:104D9000D868082008B531B1044B054A4FF4917129
:104DA00004483BF005F890F8250008BDCC1D040828
:104DB000D0210408E01D040810B531B1064B074AA4
:104DC0004FF48E7106483AF0F3FF40681146BDE893
:104DD000104003681B6B1847CC1D04081B280408EF
:104DE000E01D040808B531B1044B054A4FF48A713F
:104DF00004483AF0DDFFC06808BD00BFCC1D0408C0
:104E000062290408E01D040870B504460D4629B166
:104E10000D4B0E4A5E210E483AF0CAFF406811461B
:104E20000368DB689847606803689B6A9847236853
:104E3000E06084F828505E6A29462B462046B44636
:104E4000BDE8704001226047CC1D0408BC25040861
:104E5000E01D04082DE9F041044617460D4629B12E
:104E60000E4B0F4A4E210F483AF0A2FF40683946D8
:104E7000026896681A46B047606803689B6A98475C
:104E80002368E06084F828505E6A29462B46204655
:104E9000B446BDE8F0410122604700BFCC1D0408C4
:104EA00048240408E01D040808B529B1054B064A4A
:104EB000402106483AF07CFFC0E90532816001617B
:104EC00008BD00BFCC1D0408F3220408E01D04083F
:104ED00016F018BA16F04ABA0BF0C9B90BF039BB84
:104EE00010B504460BF06CFF23682046BDE8104067
:104EF000D3F8AC3018470BF0EDBA90F87A301BB10C
:104F0000406803681B6818471846704710B590F84A
:104F1000784090F834100C4B8C421A7809D03AB98A
:104F20000A490B4A08881488108001220C801A70E4
:104F300010BD002AFCD0064A0449148808880C8059
:104F400010800022F3E700BFD4680820D268082050
:104F5000D068082070B5044629B1274B274A6E2136
:104F600027483AF025FF052A2BD8DFE802F0032571
:104F70002B30373F406803681B69984708B301230B
:104F800084F82530002384F82630A360236194F848
:104F90002730B3B96468236820469B6A9847236822
:104FA0000546DB6A2046984785420AD12368204699
:104FB000BDE870409B691847002380F8253080F8D1
:104FC000263070BDC3610023A3602361F9E7C3618C
:104FD000012380F8263080F82830F4E700230122EE
:104FE00080F8253080F82630C261EDE7003318BF25
:104FF000012380F82730E4E7CC1D0408291F0408AA
:10500000E01D04082DE9F34105461646984629B1EE
:10501000164B174AE92117483AF0CAFE4068036860
:105020001B699847F8B1144C012120680BF02AFF46
:1050300007464146684612F091FF104BBDF9021039
:105040001B88BDF90020686803FB0122016807EB9B
:105050004202CD693146A84720680368DB6A02B086
:10506000BDE8F041184702B0BDE8F081CC1D04084E
:10507000B02A0408E01D0408DC680820D66808206F
:1050800008B590F8243033B1084B094A40F26B114F
:1050900008483AF08DFE012280F8242081F834304F
:1050A000CB860B870B63184608BD00BF1F1E040884
:1050B000FB260408E01D0408F8B5044629B13F4B5F
:1050C0003F4AA9213F483AF073FE90F825301BB9BA
:1050D00090F82630002B6FD000273B4B1B6893F8CD
:1050E0006B10236984F826700B44236194F82830F0
:1050F000002B54D0136810465B6965689847E669D1
:105100002B682EB331465B6A284698472B682846A1
:10511000DB6AE669984786422CBF00260126E761D4
:105120002B6828469B6A9847A368E0600133A36018
:10513000D4E90432A0695A43A36843439A4239D957
:1051400094F82C1069BB012184F828103046F8BD72
:10515000226A62B1D3E9097328469847216A01445B
:105160002846B847A368226A26621344A36094F8CD
:1051700027602B6826B19B69284698470646CFE7EB
:105180009B6A284698472B680746DB6A284698475B
:10519000874201D22B68EEE784F82560C0E701263C
:1051A000C6E7D31AB3FBF0F30BB92362CBE7013B9D
:1051B0002362C9E70021C7E70126C7E7CC1D040821
:1051C00096200408E01D0408DC6808204FF48002E3
:1051D000034BDA6080221A6110221A61704700BF07
:1051E00000E100E04FF480020A4BC3F88C20BFF3CB
:1051F0004F8FBFF36F8F8022C3F89020BFF34F8F84
:10520000BFF36F8F1022C3F89020BFF34F8FBFF30F
:105210006F8F704700E100E008B5054B1A68D207B0
:1052200004D4012203481A603AF0E0FD024808BDA8
:10523000A0340620394C00080400002010B5144C9E
:10524000236823B3134B144A1B6C11888B4213D170
:10525000124B198806F0C0FC226892F86A300133BC
:1052600082F86A3000F0F6FB20680BF0A9FDBDE87B
:105270001040002001F0C4BB06F0AEFC20680368BB
:105280001B6A9847BDE81040002001F0D3BB10BD59
:10529000DC68082000680140D6340620D43406209B
:1052A00008B50E4800F084FD0D4B0E4A01211A602E
:1052B0000022C3E90222C3E90422C3E9062283F8DB
:1052C000242083F8252083F8262083F8271083F8EC
:1052D000282083F82C105A6008BD00BFD83406205F
:1052E000A4340620941D040803685B6C1847012051
:1052F0007047FEE7104B82B0D3F8882042F480223A
:10530000C3F88820D3F8882002F480220192019A01
:105310001A6E42F480221A661A6E22F480221A66ED
:10532000064B074A1A62074A5A624FF48002064B3C
:10533000DA6002B0704700BF000C0246F46D08202E
:1053400055530008F352000800E100E040F2EF304E
:1053500070470000024B1B68586803685B69184778
:10536000DC68082008B50B280BD8DFE800F012062F
:10537000100A0A0A0A0808080808012008BD0520C2
:10538000FCE7054B054A702105483AF011FD002065
:10539000F4E70220F2E700BFAB2C04087E2D0408DE
:1053A000C62C040808B50A2809D8DFE800F0100662
:1053B0000E080808080606060600012008BD054B71
:1053C000054A912105483AF0F3FC0020F6E7022057
:1053D000F4E700BFAB2C0408C82D0408C62C040851
:1053E000F8B50C46487FFFF7BDFFA77F0546384656
:1053F000FFF7B8FF06463846FFF7D4FFA38A628B53
:10540000D21A494B1A64A18A628B521A9A61A18AF4
:10541000228B521A1A615863A18AE28A42EA014237
:105420005A642269DA636268DA602268402A70D0BE
:1054300010D8042A3BD0202A6BD0237F45EA03658D
:10544000394B45F40035DD61617FA27F914267D021
:10545000364A4BE0B2F5807F1BD0B2F5007F23D0F7
:10546000802AEAD1A068021DDA62227F45EA02653D
:1054700045F40035DD615E6222695A610278EAB165
:10548000012A35D02A4B2B4A40F21B112A483AF008
:105490008FFC217F294A42EA0162DA61E2681A62DE
:1054A0005E6222695A6120E0217F254AF3E7227F6C
:1054B00045EA026545F40035DD61F1E7D9694288C6
:1054C000501E21F47F42012122F0100242EA002204
:1054D000DA61154BDA6942F02002DA61DA69920684
:1054E000FCD410229A600029B2D0164A1A60F8BD86
:1054F000DA69408822F47F42217F22F010020138CD
:1055000042F01002FF3942EA002218BF0121DA619D
:10551000DFE7237F45EA036545F40035024BCBE71F
:1055200042F20132E2E700BF00B002400123010075
:10553000912C0408402D0408C62C04080A0002001F
:10554000090002000123020010B5887F0C46FFF716
:1055500029FF1C4B5863A18AE28A42EA01425A643D
:105560002269DA63628BA18A521A1A642268082AB5
:1055700016D1A18A628B521A9A61A18A628B521A41
:105580001A615862217F104A42EA0162DA61E268D8
:105590001A6222695A612269DA600C4A1A6010BDE7
:1055A0000022D8611A61E1680A0A480902F47842C7
:1055B00000F4FC600243C1F3C4010A439A63044A45
:1055C000ECE700BF00B00240090001000123020027
:1055D000012303004FF48002044B0360044BC3F823
:1055E0008C20BFF34F8FBFF36F8F7047F82C0408E8
:1055F00000E100E010B50446FFF7ECFF204640F65E
:10560000A45139F005F8204610BD000001231C22EA
:10561000084903720868084B02FB0030007E20B185
:10562000086802FB003001F0E1B8086802FB0030B6
:1056300001F09AB8A08A06201000002010B590F85A
:10564000A03D0446ABB903689B6A9847174B1A689C
:105650001C235343164AD35C012B09D1154A126807
:1056600032B9227A22B984F8A03D2046FFF7CEFF56
:1056700010BD037A4BB1002303721C200B4B1A6838
:105680000B4B00FB023001F033F9606803681B68C4
:1056900098470028ECD1637A002BE9D0236884F87E
:1056A000A00D5B6A2046BDE810401847A08A06207E
:1056B000100000209C8A062010B50446406803684C
:1056C0001B68984758B9637A4BB1237A3BB984F881
:1056D000A03D23682046BDE810405B6A1847084B90
:1056E0001A681C235343074AD35C012B06D1227A44
:1056F00022B984F8A03D2046FFF788FF10BD00BF07
:10570000A08A06201000002070B5054600262C4611
:105710000A4B0C3068602E726E7244F8203B602297
:1057200021460BF0ADFC05F55A63E6602434A34234
:10573000FBD185F8A06D284670BD00BFF82C040889
:10574000034B1A68D207FCD423229A60704700BF2B
:1057500000B0024030B50F4C2568ED07FCD423257E
:10576000A5600225090441F00101FF2B6563616416
:10577000E0630AD00849656241EA0363E361074BCD
:1057800022626061E060236030BDE561039BA3633A
:10579000034BF8E700B002400900010001000200DD
:1057A0000100030030B50E4C2568ED07FCD423251D
:1057B000A5600225120442F00102FF2B65636264BA
:1057C000E063E16008D01B0643F00213E361054B80
:1057D00065626061236030BD034BE3610123F9E73B
:1057E00000B0024001000200020002FF30B50B4C85
:1057F0002568ED07FCD42325A560022512041B06AD
:1058000043F4003342F0010265636264E063E160E7
:10581000E361034B65626061236030BD00B002400C
:105820000100020030B50F4C2568ED07FCD423259C
:10583000A560012509042943FF2B65636164E063CA
:105840000CD00949656241EA0363E36122F07F42BB
:10585000064B22626061E060236030BDE561044B6D
:10586000A263F9E700B00240090001000100020054
:105870000100030030B50D4C2568ED07FCD423254D
:10588000A560012512042A43FF2B65636264E0636F
:10589000E16007D0064A42EA0363E3616562606142
:1058A000226030BD034BE3612560FAE700B002409F
:1058B00001000200010002FF30B50B4C2568ED0726
:1058C000FCD42325A560012512041B0643F40033F4
:1058D0002A4365636264E063E160E361034B6562F0
:1058E0006061236030BD00BF00B0024001000200D3
:1058F00070B5104C256815F00105FBD1232609046D
:1059000041F00101FF2BA66065636164E0630CD088
:105910000949656241EA0363E36122F07F42074B74
:1059200022626061E060236070BDE561044BA263A8
:10593000F9E700BF00B002400900010001000200C9
:105940000100030070B50F4C256815F00105FBD16F
:105950002326FF2B08BF02234FEA024242F0010236
:10596000A66018BF1B0665636264074A18BF43F050
:105970000213E063E16017BFE361E36165626061A8
:10598000226070BD00B002400100020070B50F4CF3
:10599000256815F00105FBD12326120442F001020F
:1059A000A660656362640022FF2B1CBF1B0643F4E4
:1059B0000033E063E16018BFE361044B08BFE561B9
:1059C0005A62034A58611A6070BD00BF00B00240BD
:1059D00001000200012108B50022084608F02DFF51
:1059E0000A4B186028B92821094B0A4A0A483AF09C
:1059F000DFF900220421012008F0C6FF074B1860E0
:105A000018B9074B034A2C21F0E708BD24350620BE
:105A1000132E0408C72E04085C2E04082035062027
:105A2000852E0408024B4FF0FF31186808F054BF70
:105A300024350620014B186808F07CBF2435062069
:105A4000024B0021186808F047BF00BF243506202C
:105A5000FFF7F0BF002303481A460349006808F027
:105A6000D3BF00BF2035062008000020002313B557
:105A7000074C1A4601A9206808F0FAFF4FF0FF33DF
:105A8000002201A9206808F0F3FF02B010BD00BF9A
:105A900020350620012070470C2070470C2303FBA3
:105AA0000100083070470C2303FB010008307047E9
:105AB0000120704743F6FC30704743F6FC3303FB8C
:105AC00001000830704743F6FC3303FB0100083047
:105AD0007047012070471020704700EB011008301C
