:020000040800F2
:1000000000002F20991B0108217E0008237E000894
:10001000257E0008277E0008297E0008E91B0108CC
:10002000000000000000000000000000D1F80008FF
:100030002B7E00080000000061F800087D14010814
:10004000E91B0108E91B0108E91B0108E91B01087C
:10005000E91B0108E91B0108E91B0108E91B01086C
:10006000E91B0108E91B0108E91B0108E91B01085C
:10007000E91B0108E91B0108E91B0108E91B01084C
:100080002D7E0008E91B0108E91B0108E91B010896
:10009000E91B0108E91B0108E91B0108E91B01082C
:1000A000E91B0108E91B0108E91B0108E91B01081C
:1000B000E91B0108357E0008417E0008E91B0108A4
:1000C000E91B0108E91B0108E91B0108E91B0108FC
:1000D000E91B0108E91B0108E91B0108E91B0108EC
:1000E000E91B0108E91B0108E91B0108E91B0108DC
:1000F000E91B0108E91B0108E91B0108E91B0108CC
:10010000E91B01084D7E0008E91B0108E91B0108F5
:10011000E91B0108E91B0108E91B0108E91B0108AB
:10012000E91B0108E91B0108E91B0108E91B01089B
:10013000E91B0108E91B0108597E0008E91B0108B9
:10014000E91B0108E91B0108E91B0108E91B01087B
:10015000E91B0108E91B0108E91B0108E91B01086B
:10016000E91B0108E91B0108E91B0108E91B01085B
:10017000E91B0108E91B0108E91B0108E91B01084B
:10018000E91B0108E91B0108E91B0108E91B01083B
:10019000E91B0108E91B0108E91B0108E91B01082B
:1001A000E91B0108E91B0108E91B0108E91B01081B
:1001B000E91B0108E91B0108E91B0108E91B01080B
:1001C000E91B0108E91B0108E91B0108E91B0108FB
:1001D000E91B0108E91B0108E91B0108E91B0108EB
:1001E000E91B0108E91B0108E91B0108E91B0108DB
:1001F000E91B0108E91B0108E91B0108E91B0108CB
:10020000E91B0108E91B0108E91B0108E91B0108BA
:10021000E91B0108E91B0108657E0008E91B0108CC
:10022000E91B0108E91B0108E91B0108E91B01089A
:10023000E91B0108E91B0108E91B0108E91B01088A
:10024000E91B0108E91B0108E91B0108717E000890
:100250007D7E0008897E0008E91B0108957E000864
:10026000A17E0008E91B0108E91B0108E91B010840
:04027000A57E00085F
:1002800010B5054C237833B9044B13B1044800E092
:1002900000BF0123237010BD0833062000000000BA
:1002A000403A040808B5034B1BB10349034800E07A
:1002B00000BF08BD000000000C330620403A0408CF
:1002C00081F0004102E000BF83F0004330B54FEA07
:1002D00041044FEA430594EA050F08BF90EA020F74
:1002E0001FBF54EA000C55EA020C7FEA645C7FEA07
:1002F000655C00F0E2804FEA5454D4EB5555B8BF2A
:100300006D420CDD2C4480EA020281EA030382EA9A
:10031000000083EA010180EA020281EA0303362D2C
:1003200088BF30BD11F0004F4FEA01314FF4801CFF
:100330004CEA113102D0404261EB410113F0004F11
:100340004FEA03334CEA133302D0524263EB4303C8
:1003500094EA050F00F0A780A4F10104D5F1200E66
:100360000DDB02FA0EFC22FA05F2801841F10001C1
:1003700003FA0EF2801843FA05F359410EE0A5F195
:1003800020050EF1200E012A03FA0EFC28BF4CF0C6
:10039000020C43FA05F3C01851EBE37101F000457C
:1003A00007D54FF0000EDCF1000C7EEB00006EEB89
:1003B0000101B1F5801F1BD3B1F5001F0CD3490813
:1003C0005FEA30004FEA3C0C04F101044FEA44526A
:1003D00012F5800F80F09A80BCF1004F08BF5FEAF1
:1003E000500C50F1000041EB045141EA050130BDD1
:1003F0005FEA4C0C404141EB010111F4801FA4F174
:100400000104E9D191F0000F04BF01460020B1FAC8
:1004100081F308BF2033A3F10B03B3F120020CDA00
:100420000C3208DD02F1140CC2F10C0201FA0CF0DE
:1004300021FA02F10CE002F11402D8BFC2F1200C43
:1004400001FA02F120FA0CFCDCBF41EA0C019040F9
:10045000E41AA2BF01EB0451294330BD6FEA040442
:100460001F3C1CDA0C340EDC04F11404C4F120022D
:1004700020FA04F001FA02F340EA030021FA04F33F
:1004800045EA030130BDC4F10C04C4F1200220FA96
:1004900002F001FA04F340EA0300294630BD21FAD4
:1004A00004F0294630BD94F0000F83F4801306BF9A
:1004B00081F480110134013D4EE77FEA645C18BF8E
:1004C0007FEA655C29D094EA050F08BF90EA020F25
:1004D00005D054EA000C04BF1946104630BD91EA1D
:1004E000030F1EBF0021002030BD5FEA545C05D120
:1004F0004000494128BF41F0004130BD14F580045F
:100500003CBF01F5801130BD01F0004545F0FE41D2
:1005100041F470014FF0000030BD7FEA645C1ABF07
:10052000194610467FEA655C1CBF0B46024650EA3E
:10053000013406BF52EA033591EA030F41F400216A
:1005400030BD00BF90F0000F04BF0021704730B5F0
:100550004FF4806404F132044FF000054FF00001C5
:1005600050E700BF90F0000F04BF0021704730B586
:100570004FF4806404F1320410F0004548BF40425B
:100580004FF000013EE700BF42004FEAE2014FEAB0
:1005900031014FEA02701FBF12F07F4393F07F4F8B
:1005A00081F06051704732F07F4208BF704793F08E
:1005B0007F4F04BF41F40021704730B54FF46074A1
:1005C00001F0004521F000411CE700BF50EA0102A4
:1005D00008BF704730B54FF000050AE050EA01024D
:1005E00008BF704730B511F0004502D5404261EBBD
:1005F00041014FF4806404F132045FEA915C3FF4FE
:10060000D8AE4FF003025FEADC0C18BF03325FEA9A
:10061000DC0C18BF033202EBDC02C2F1200300FA4B
:1006200003FC20FA02F001FA03FE40EA0E0021FA70
:1006300002F11444BDE600BF70B54FF0FF0C4CF45E
:10064000E06C1CEA11541DBF1CEA135594EA0C0F10
:1006500095EA0C0F00F0DEF82C4481EA030621EA4B
:100660004C5123EA4C5350EA013518BF52EA033586
:1006700041F4801143F4801338D0A0FB02CE4FF038
:100680000005E1FB02E506F00042E0FB03E54FF068
:100690000006E1FB03569CF0000F18BF4EF0010E60
:1006A000A4F1FF04B6F5007F64F5407404D25FEA5C
:1006B0004E0E6D4146EB060642EAC62141EA55510F
:1006C0004FEAC52040EA5E504FEACE2EB4F1FD0C51
:1006D00088BFBCF5E06F1ED8BEF1004F08BF5FEACF
:1006E000500E50F1000041EB045170BD06F0004681
:1006F00046EA010140EA020081EA0301B4EB5C042E
:10070000C2BFD4EB0C0541EA045170BD41F4801125
:100710004FF0000E013C00F3AB8014F1360FDEBF4A
:10072000002001F0004170BDC4F10004203C35DA26
:100730000C341BDC04F11404C4F1200500FA05F3A9
:1007400020FA04F001FA05F240EA020001F000424A
:1007500021F0004110EBD37021FA04F642EB0601C0
:100760005EEA430E08BF20EAD37070BDC4F10C04EA
:10077000C4F1200500FA04F320FA05F001FA04F2AE
:1007800040EA020001F0004110EBD37041F100019A
:100790005EEA430E08BF20EAD37070BDC4F12005A5
:1007A00000FA05F24EEA020E20FA04F301FA05F20D
:1007B00043EA020321FA04F001F0004121FA04F2B5
:1007C00020EA020000EBD3705EEA430E08BF20EA85
:1007D000D37070BD94F0000F0FD101F000464000BF
:1007E00041EB010111F4801F08BF013CF7D041EA41
:1007F000060195F0000F18BF704703F00046520045
:1008000043EB030313F4801F08BF013DF7D043EA15
:100810000603704794EA0C0F0CEA135518BF95EACB
:100820000C0F0CD050EA410618BF52EA4306D1D152
:1008300081EA030101F000414FF0000070BD50EA71
:10084000410606BF1046194652EA430619D094EAFB
:100850000C0F02D150EA013613D195EA0C0F05D1E5
:1008600052EA03361CBF104619460AD181EA030139
:1008700001F0004141F0FE4141F470014FF00000F1
:1008800070BD41F0FE4141F4780170BD70B54FF08C
:10089000FF0C4CF4E06C1CEA11541DBF1CEA13550C
:1008A00094EA0C0F95EA0C0F00F0A7F8A4EB0504EE
:1008B00081EA030E52EA03354FEA013100F08880E5
:1008C0004FEA03334FF0805545EA131343EA1263AE
:1008D0004FEA022245EA111545EA10654FEA002663
:1008E0000EF000419D4208BF964244F1FD0404F51C
:1008F000407402D25B084FEA3202B61A65EB030578
:100900005B084FEA32024FF480104FF4002CB6EB34
:10091000020E75EB030E22BFB61A754640EA0C00B4
:100920005B084FEA3202B6EB020E75EB030E22BFF4
:10093000B61A754640EA5C005B084FEA3202B6EB35
:10094000020E75EB030E22BFB61A754640EA9C00F4
:100950005B084FEA3202B6EB020E75EB030E22BFC4
:10096000B61A754640EADC0055EA060E18D04FEA82
:10097000051545EA16754FEA06164FEAC30343EA22
:1009800052734FEAC2025FEA1C1CC0D111F4801FEF
:100990000BD141EA00014FF000004FF0004CB6E7E8
:1009A00011F4801F04BF01430020B4F1FD0C88BF87
:1009B000BCF5E06F3FF6AFAEB5EB030C04BFB6EB92
:1009C000020C5FEA500C50F1000041EB045170BD85
:1009D0000EF0004E4EEA113114EB5C04C2BFD4EBB2
:1009E0000C0541EA045170BD41F480114FF0000E36
:1009F000013C90E645EA060E8DE60CEA135594EAB2
:100A00000C0F08BF95EA0C0F3FF43BAF94EA0C0FB4
:100A10000AD150EA01347FF434AF95EA0C0F7FF429
:100A200025AF104619462CE795EA0C0F06D152EA7D
:100A300003353FF4FDAE1046194622E750EA410661
:100A400018BF52EA43067FF4C5AE50EA41047FF472
:100A50000DAF52EA43057FF4EBAE12E74FEA4102D5
:100A6000B2F1E04324BFB3F5001CDCF1FE5C0DD90C
:100A700001F0004C4FEAC0024CEA5070B2F1004F56
:100A800040EB830008BF20F00100704711F0804F59
:100A900021D113F13872BCBF01F00040704741F41E
:100AA00080114FEA5252C2F11802C2F1200C10FA22
:100AB0000CF320FA02F018BF40F001004FEAC12306
:100AC0004FEAD32303FA0CFC40EA0C0023FA02F3AA
:100AD0004FEA4303CCE77FEA625307D150EA013380
:100AE0001EBF4FF0FE4040F44000704701F0004050
:100AF00040F0FE4040F40000704700BF53B94AB9CF
:100B0000002908BF00281CBF4FF0FF314FF0FF3015
:100B100000F07CB9ADF1080C6DE904CE00F006F8E8
:100B2000DDF804E0DDE9022304B070472DE9F04769
:100B30008C46089D04468A46002B4AD18A421746B5
:100B400062D9B2FA82F64EB1C6F1200E01FA06F36E
:100B5000B740B44020FA0EFE4EEA030A4FEA1748A7
:100B6000230C1FFA87F9BAFBF8FE08FB1EAA0EFB3E
:100B700009F243EA0A439A420BD9FB180EF1FF31FE
:100B80002CBF012000209A4202D9002800F02A81BF
:100B90008E469A1AA3B2B2FBF8F008FB102200FBB3
:100BA00009F943EA0244A14507D93C1900F1FF3392
:100BB00002D2A14500F210811846A4EB090440EAD4
:100BC0000E4000211DB1F4400023C5E90043BDE8FB
:100BD000F0878B4208D9002D00F0F2800021C5E992
:100BE000000C0846BDE8F087B3FA83F100294ED126
:100BF0006345C0F0E880824240F2E5800846002D5F
:100C0000E5D0C5E9004AE2E702B9FFDEB2FA82F6B2
:100C1000002E40F099808B1A4FEA124E1FFA82F88C
:100C200001214FEA144CB3FBFEF20EFB123008FB1D
:100C300002F94CEA004CE14508D917EB0C0C02F123
:100C4000FF3302D2E14500F2CA801A46ACEB090C30
:100C5000A3B2BCFBFEF00EFB10CC08FB00F843EA8D
:100C60000C44A0450ED93C1900F1FF332CBF4FF0C6
:100C7000010C4FF0000CA04503D9BCF1000F00F0AF
:100C8000A8801846A4EB080440EA02409AE7C1F1A4
:100C900020048B4002FA01FE0CFA01F6E24020FA31
:100CA00004F72CFA04FC00FA01F813433E431F0C2E
:100CB000320C1FFA83F9BCFBF7F007FB10CC00FBEA
:100CC00009FA42EA0C4CE24508D913EB0C0C00F18E
:100CD000FF3202D2E24500F289801046ACEB0A0CEA
:100CE000B6B2BCFBF7FA07FB1ACC0AFB09F946EAD5
:100CF0000C42914506D99A180AF1FF3601D2914566
:100D00007AD8B2464AEA0040A2EB0902A0FB0E677D
:100D1000BA42B446B94602D307D1B04505D2B6EBC4
:100D20000E0C67EB030301389946002D6BD0B8EB2E
:100D30000C0362EB090202FA04F4CB40CA40002122
:100D40001C43C5E9004242E7B740C6F1200201FA60
:100D500006F3B44021FA02FC4FEA174E20FA02F2E1
:100D60001FFA87F8BCFBFEF11A430EFB11CC01FB06
:100D700008F0130C43EA0C4C604507D917EB0C0C38
:100D800001F1FF3301D2604533D81946ACEB000CBA
:100D900092B2BCFBFEF00EFB10CC00FB08F342EA63
:100DA0000C4C634507D917EB0C0C00F1FF3201D254
:100DB000634525D81046ACEB030340EA014130E718
:100DC0002946284603E7841A6CEB030301209A4660
:100DD00015E702383C4455E702383C44EDE6023A58
:100DE000BC4433E7AEF1020E3B44D2E602389C44E9
:100DF00074E70239BC44C9E7AAF1020A1A4481E740
:100E00000238BC44D7E72946E1E600BF704700BF7F
:100E100090F8252012B103685B69184770478180FC
:100E20007047C180704701817047418170477047AA
:100E30007047704770477047C38810B4D21A8388D0
:100E400012B2C91A036809B25B6D5DF8044B18470A
:100E5000806A704710B504460B46054A0A21AC303B
:100E60001CF0DFF904F16000BDE8104019F0FCBD92
:100E7000283B040810B50446024B036000F035FA25
:100E8000204610BD343B040810B50446FFF7F2FFBE
:100E90002046C02140F0DEF9204610BD10B50446C2
:100EA00000F0A0FA014B2046236010BD343B04083B
:100EB00000F01CBA704704387047704710B50446FC
:100EC000102140F0C7F9204610BDA0F10400F5E75D
:100ED000002210B58260044AC16002F10804203289
:100EE0000460426010BD00BFC43B040870477047F7
:100EF000704782B00DF1080C0CE90600019A1279D6
:100F00002AB90368BDF900105B6B02B0184702B044
:100F1000704782B002AB03E906000368BDF9001018
:100F20005B6B02B01847000010B50446024B03602B
:100F300003F0A0FF204610BD743C040810B5044621
:100F4000FFF7F2FF20464FF4765140F083F9204638
:100F500010BD00680028BDBF20230F3890FBF3F0C0
:100F60001030A8BF4011704737B501AB15461AF0D5
:100F700071FA00284FEA40142A4601994FF02000E8
:100F800004DB1AF086FA204403B030BD1AF081FA6F
:100F9000201AF9E710B5044601F076F9014B204616
:100FA000236010BD743C040838B5044604F543754D
:100FB00000F0C7FF284610F0F3FF43F67453E050EB
:100FC000284611F006F843F67853E050284611F011
:100FD00003F843F67C53E05038BD000043F67053ED
:100FE0003C2170B5C25804460132C25092FBF1F365
:100FF00001FB1322002A45D143F67C5543590133A6
:101000003B2B43510ADD43F6785043F67456215882
:10101000A35901313B2962512DDC215043F67C5309
:1010200043F6785243F67451E35CA25C615C04F5CC
:10103000437010F06AFF43F67053E5583C230321D8
:1010400095FBF3F595FBF1F303EB4303ED1A17352D
:101050002B460D4A04F664601CF0E3F804F58C603E
:1010600019F002FDD4F8581604F224606943BDE873
:10107000704013F0A9BB0133172BC8BF1346225091
:10108000A351CBE770BD00BFEC3B04082DE9F04F46
:1010900004460FFA81F9B4F83C37B4F83A17B0F8BF
:1010A00028660B44B4F8641600F6A455C91AD4F89F
:1010B0005436D0F8500703FB09F3D4F8542709B28B
:1010C00085B0121A0139181AFFF74EFFB4F93A37F2
:1010D0000DF1100A00EB43104AF8040D5046FFF7DB
:1010E00038FFB4F89016B4F93877B4F83E370E44A8
:1010F000FA18D4F86817B4F8663651F829C0834650
:101100009B1AD4F85807D4F85C271BB2121A591E40
:10111000ACEB0000B4F82A860193FFF725FF019B92
:10112000B6B21F44013FC0EB471750460397FFF785
:1011300010FFB4F8EA26B4F8A81D9044B4F8AA2D1C
:10114000711AA8EB02020244594412B209B22846AD
:1011500019F00CFDB9F1000F03DBB4F942374B4530
:1011600006DC144B144A40F23961144841F040FC4B
:10117000D4F86837D4F8582653F82930002B0CDB04
:1011800002EB430191FBF2F1022391FBF3F12846BC
:10119000FFF760FE05B0BDE8F08F6FF0010101FBC5
:1011A0000321013991FBF2F1022391FBF3F1494252
:1011B000EDE700BFEF3B0408AC3C0408123C040818
:1011C0000022026070477047704700F59873086806
:1011D000496803C37047704703F0E4BE10B5044686
:1011E0004FF4AE7140F036F8204610BD10B50446FD
:1011F000D0F85801FFF7E7FF2046BDE8104018F08F
:101200000FBC10B50446D0F8400158B10368DB6844
:10121000984738B1D4F8400103689B689847002389
:10122000C4F8403110BD000010B5044603F08AFE3A
:10123000014B2046236010BD043D04080020704788
:101240004FF6FF7383814FF0FF3303621368C3616E
:101250001060704790F825201AB190F8242002B150
:1012600018607047704730B585B06D4603680181DE
:1012700004460146D3F884302846984795E807008D
:101280003C3484E8070005B030BD30B585B06D460C
:101290000368418104460146D3F8843028469847C4
:1012A00095E807003C3484E8070005B030BD002213
:1012B000028042808280C280704780F8361070477A
:1012C00070B50446154603681B6B9847236829468A
:1012D0002046BDE870405B6E18470020704708B597
:1012E000FFF796FD08BD806C7047704770477047E8
:1012F00010B5044608213FF0ADFF204610BD10B5E3
:1013000004464C213FF0A6FF204610BD10B5044610
:10131000C0213FF09FFF204610BD000070B503685C
:1013200004465E6B114B8DB21B682BB96C21104BC0
:10133000104A114841F05CFB1049828D09889142A6
:1013400003D80F4B0B4A6D21F3E713F812200D4B16
:101350001B6853F8220003681B6B9847291A334611
:101360002046BDE8704009B2184700BFB86A08209F
:10137000F33D0408483F0408353E0408BC6A0820D1
:10138000763E0408C06A082000224FF0FF318260D8
:10139000C0E90021704700000A4A026000228280F2
:1013A000C280028142818281C28102824282C0E97E
:1013B0000522C2610284428480F82420012280F840
:1013C000252070476877040870B504461546036801
:1013D0009B6B9847236829462046BDE87040DB6B2D
:1013E000184700002DE9F04304460025264687B043
:1013F000FFF7D2FF514BA56246F82C3B2622294627
:10140000304641F07EFB3046FFF7C6FFFF2384F8ED
:1014100052304B4B04F16007E36226222946656592
:10142000A565A4F85C50384641F06BFB3846FFF7E1
:10143000B3FF4FF6FF734FF47F02A4F88C30A4F88B
:10144000A030A4F8A2303F4BDFF8248123663E4B46
:10145000C4F89420A36030462946C4F88880C4F8B4
:10146000905084F8985084F89950A4F89C50A4F8AF
:101470009E50C4F8A450C4F8A850FFF7D0FC3046E2
:101480002946FFF7CEFC304614224621FFF79CFF89
:101490004FF001094FF0FF332C4A3146C4E91523C0
:1014A0002046A4F85C9010F0A4FD14224621384692
:1014B0006566FFF789FF4FF07F436E46C4F89030B2
:1014C000236EA4F894503046D3F8843039469847B8
:1014D00096E8070004F19C0383E807001C4B04F125
:1014E000AC061B682BB960211A4B1B4A1B4841F004
:1014F0007FFA1B4B1B881BB91A4B174A6121F5E772
:10150000194B2946186804F013F9184A03460A21B2
:1015100030461BF086FE04A93846C4F8A860CDF812
:101520001080ADF8149015F05BF82046394610F0A5
:1015300060FD204607B0BDE8F08300BFBC3E040854
:1015400048750408683D040846001400FAFCEDFFE5
:10155000B86A0820F33D0408833F0408353E0408B8
:10156000BC6A0820763E0408C46A0820F03D0408DE
:10157000583D040870477047704700207047B1F924
:101580000430838001207047704780F82C1070472A
:1015900010B40468036BD4F8A4405A43594323465B
:1015A0005DF8044B1847D0ED0C7AF8EEE77A20EEA0
:1015B000270AB5EEC00AF1EE10FA0368D3F8A4309A
:1015C00017DBB6EE007A30EE070ABDEEC07A17EEF2
:1015D000101A60EEA70AF5EEC00AF1EE10FA1CDB55
:1015E000F6EE007A70EEA70AFDEEE07A17EE902A8A
:1015F0001847BDEEC07AF8EEC76A30EE660AF7EE1D
:10160000086A30EE260A17EE102ABDEEC00A511EF7
:1016100010EE102A0A441146DBE7FDEEE07AB8EE40
:10162000E77A70EEC70AB7EE087A70EE870AFDEE29
:10163000E00A17EE902A10EE90CA013A94446246EE
:10164000D6E710B40368046BD3F8B03062435DF89A
:10165000044B1847D0ED0C7AF8EEE77A27EE800AB3
:10166000B5EEC00AF1EE10FA0368D3F8B03008DB2B
:10167000F6EE007A30EE270AFDEEC07A17EE902AD9
:101680001847FDEEC07AB8EEE77A30EE470AB7EEBB
:10169000087A30EE070ABDEEC00A17EE902A10EE67
:1016A00010CA013A94446246EAE710B40468436BF6
:1016B000D4F8BC405A43594323465DF8044B1847BD
:1016C000D0ED0D7AF8EEE77A20EE270AB5EEC00AE3
:1016D000F1EE10FA0368D3F8BC3017DBB6EE007AEF
:1016E00030EE070ABDEEC07A17EE101A60EEA70AB8
:1016F000F5EEC00AF1EE10FA1CDBF6EE007A70EEA1
:10170000A70AFDEEE07A17EE902A1847BDEEC07AE0
:10171000F8EEC76A30EE660AF7EE086A30EE260A7F
:1017200017EE102ABDEEC00A511E10EE102A0A4410
:101730001146DBE7FDEEE07AB8EEE77A70EEC70A15
:10174000B7EE087A70EE870AFDEEE00A17EE902AEF
:1017500010EE90CA013A94446246D6E710B403688A
:10176000446BD3F8C03062435DF8044B1847D0EDAA
:101770000D7AF8EEE77A27EE800AB5EEC00AF1EEB0
:1017800010FA0368D3F8C03008DBF6EE007A30EECA
:10179000270AFDEEC07A17EE902A1847FDEEC07AB0
:1017A000B8EEE77A30EE470AB7EE087A30EE070A6D
:1017B000BDEEC00A17EE902A10EE10CA013A94440A
:1017C0006246EAE7D0F82C31026B002B07DB02EB14
:1017D000430090FBF2F0022390FBF3F070476FF0B0
:1017E000010000FB0320013890FBF2F0022390FB84
:1017F000F3F040427047D0ED4B7A90ED0C0AF8EED2
:10180000E77AB8EEC00A87EE800A7047D0F82C015C
:101810007047D0F83031026B002B07DB02EB43003E
:1018200090FBF2F0022390FBF3F070476FF00100A1
:1018300000FB0320013890FBF2F0022390FBF3F051
:1018400040427047D0ED4C7A90ED0C0AF8EEE77A02
:10185000B8EEC00A87EE800A7047D0F830017047B2
:10186000D0F83431426B002B07DB02EB430090FBD6
:10187000F2F0022390FBF3F070476FF0010000FBE1
:101880000320013890FBF2F0022390FBF3F040427A
:101890007047D0ED4D7A90ED0D0AF8EEE77AB8EE8C
:1018A000C00A87EE800A7047D0F834017047D0F83C
:1018B0003831426B002B07DB02EB430090FBF2F068
:1018C000022390FBF3F070476FF0010000FB032050
:1018D000013890FBF2F0022390FBF3F04042704796
:1018E000D0ED4E7A90ED0D0AF8EEE77AB8EEC00A28
:1018F00087EE800A7047D0F83801704708B590F835
:101900002C300BB1FFF784FA08BD70B504460D46C4
:1019100016460368D3F8883098472368324629462C
:101920002046BDE87040D3F8903018470368D3F8DC
:10193000943018470368D3F8D43018470368D3F8B5
:10194000E030184710B40368002AD3F8A430046BC1
:101950000EDB04EB420191FBF4F1022291FBF2F168
:10196000B0F91E215DF8044B013A0A444942184778
:101970006FF0010101FB0241013991FBF4F10222F8
:1019800091FBF2F14942EBE70368D3F83C31184789
:10199000026B03685143D3F8483118470368D3F802
:1019A00044311847D0ED0C7AF8EEE77A27EE800A3A
:1019B000B5EEC00AF1EE10FA0368D3F8483108DB3F
:1019C000F6EE007A30EE270AFDEEC07A17EE901A96
:1019D0001847FDEEC07AB8EEE77A30EE470AB7EE68
:1019E000087A30EE070A17EE902ABDEEC00A511EA3
:1019F00010EE102A0A441146EAE7C0F83C1170477D
:101A00000368D3F85031184710B503680446D3F87B
:101A10005C3198470028236B07DB03EB400090FB09
:101A2000F3F0022390FBF3F010BD6FF0010202FB14
:101A30000030013890FBF3F0022390FBF3F04042BA
:101A4000F2E70368D3F85831184710B50368044625
:101A5000D3F85C31984794ED0C0A07EE900AB8EE83
:101A6000C00AF8EEE77A87EE800A10BDD0F83C0194
:101A70007047026B03685143D3F868311847D0EDC3
:101A80000C7AF8EEE77A27EE800AB5EEC00AF1EE9E
:101A900010FA0368D3F8683108DBF6EE007A30EE0E
:101AA000270AFDEEC07A17EE901A1847FDEEC07AAD
:101AB000B8EEE77A30EE470AB7EE087A30EE070A5A
:101AC00017EE902ABDEEC00A511E10EE102A0A44ED
:101AD0001146EAE7C0F84011704710B503680446A4
:101AE000D3F8743198470028236B07DB03EB4000E1
:101AF00090FBF3F0022390FBF3F010BD6FF00102B6
:101B000002FB0030013890FBF3F0022390FBF3F06E
:101B10004042F2E710B503680446D3F874319847A1
:101B200094ED0C0A07EE900AB8EEC00AF8EEE77AD8
:101B300087EE800A10BDD0F8400170470846704714
:101B400010B5036800290446D3F88431026B10DB1A
:101B500002EB410191FBF2F1022291FBF2F109B299
:101B600020469847D4F83C21D4F8403102FB00309D
:101B700010BD6FF0010000FB0121013991FBF2F172
:101B8000022291FBF2F14942E9E7006B7047406B9A
:101B900070470368D3F8483118470368D3F85C31BD
:101BA0001847026B03685143D3F81431184770B5D6
:101BB00003680446D3F81851D3F88031D0F8446153
:101BC00098472B4656F820102046BDE8704018472D
:101BD000D0F84831B0F91E011944081A704780F84E
:101BE0002610704790F826007047002210B5B1F912
:101BF0000840B1F90A10028042808480C18010BD83
:101C00000022028042808280C2807047C162704799
:101C1000C06A70470120704770477047C06B18B1A9
:101C20000368D3F880301847704730B5B2F91651C1
:101C3000B2F8181105806C18B2F84010B2F94220C1
:101C4000091B002481804480C28030BD02808380D3
:101C5000BDF90020BDF904304280C38070470B6895
:101C60000846D3F8EC3018470B680846D3F8F8302C
:101C70001847B1F916017047B1F81601B1F81831DB
:101C80000344B1F84000C01A00B27047B1F9140122
:101C90007047B1F81401B1F81A310344B1F84200A9
:101CA000C01A00B270470B680846D3F818311146C5
:101CB000184782B002AB03E9060002B0704782B059
:101CC00002AB03E9060002B07047704770477047E7
:101CD000704770477047034670B4C6684568741013
:101CE000F60705EB04009B6844BF2C59E35870BC11
:101CF000184743682BB183682BB9C06800F0010016
:101D000070471846704701207047034670B4C66894
:101D100045687410F60705EB04009B6844BF2C5916
:101D2000E35870BC184743682BB183682BB9C0686F
:101D300000F0010070471846704701207047838902
:101D40008B4286BF00EB8100406800207047002274
:101D500010B58489031D91B28C4208D953F8041B35
:101D6000104691F8371001320029F4D010BD4FF021
:101D7000FF30FBE710B5036804461B699847011E56
:101D800006DB23682046BDE81040DB6889B21847AF
:101D9000002010BD002330B585899CB2A54203F117
:101DA000010206D900EB84035B6883F83810134600
:101DB000F2E730BD83891BB1436893F83800704760
:101DC00018467047034630B4C56844686A10ED078A
:101DD00004EB02009B6848BFA25830BC48BFD358F0
:101DE000184743682BB183682BB9C06800F0010025
:101DF0007047184670470120704770B50D4604467D
:101E00000121284615F0C8F9236829462046BDE877
:101E100070405B6A184710B504464FF41E713FF0DE
:101E200019FA204610BD10B5044640213FF012FAC1
:101E3000204610BD10B5044638213FF00BFA20466D
:101E400010BD10B5044610213FF004FA204610BD25
:101E500010B5044610213FF0FDF9204610BD10B525
:101E6000044610213FF0F6F9204610BD0A1E10B5B9
:101E700003DBB0F91E41944206DC084B084A40F2ED
:101E80003961084840F0B4FD0368D0F84441D3F804
:101E90008031984754F8200010BD00BFEF3B040884
:101EA0001E450408123C04080B1E10B5044603DB53
:101EB000B0F91E219A4206DC084B094A40F2336110
:101EC000084840F095FD0368D3F884319847D4F86A
:101ED0003C21D4F8403102FB003010BDEF3B040838
:101EE000CF440408123C040808B58389012B05D9A6
:101EF000094B0A4A41210A4840F07AFD00F11003DB
:101F00008B6200F12003CB6383895A1C828100EB32
:101F10008300416008BD00BFA842040828440408AB
:101F2000E142040838B50A68D0E90C54D2F894208C
:101F300008469047294602462046BDE8384012F040
:101F4000E9BB00F6A450FEF7B3BF10B400F224645E
:101F50008C4205D106CA03685DF8044BDB6A18475A
:101F60005DF8044B704710B400F224648C4205D134
:101F700006CA03685DF8044B1B6B18475DF8044BF9
:101F8000704770B50446406B0D4650B10368DB687E
:101F9000984730B1606B2946BDE8704003689B6884
:101FA000184770BD70B504460E460025A289ABB235
:101FB0009A420CD904EB83035868B04205D090F8DC
:101FC000373013B1002115F0E7F80135EEE7206B4B
:101FD00050B10368DB68984730B1206B3146BDE8EB
:101FE000704003689B68184770BD70B5044615467D
:101FF00003681B6B9847236829462046BDE870405C
:102000005B6B184770B504461E46BDF91050FFF7CC
:10201000ECFF2368314620469A6B90472368294697
:102020002046BDE87040DB6B1847000010B5044641
:102030002622002140F065FD2046FFF7ADF9044B54
:1020400020462360FF2384F826300023A36210BDBE
:102050005C74040838B504460D462622002140F081
:1020600050FD2046FFF798F9064B204623602B8849
:102070002946E384FF2384F8283014F085FE2046A7
:1020800038BD00BFB075040810B5044626220021F3
:1020900040F037FD2046FFF77FF90C4B4FF6FF72FB
:1020A00023600B4B4FF47F01A3620023A285C4E998
:1020B0000C3184F8383084F83930A387E387A4F8EA
:1020C0004020A4F842206364204610BDCC7304086D
:1020D000583D040838B5B0F91441B0F81A51D0F899
:1020E00038216319B0F84250ED1AD0F834312DB2CE
:1020F000C81AD21A691EFEF737FF2C44013CC0EB08
:10210000441038BD38B50446D0F82C51B0F816311B
:10211000D0F83021B0F81801521B1844B4F8403000
:102120001B1A1BB2481B591EFEF71EFFB4F91631CD
:1021300000EB431038BD000010B5044611F0CEFE90
:102140000A4A002322600122C4E90C23084AE36200
:10215000A2634FF6FF72A2872E2284F84030A4F8C3
:102160004230A4F84420A364204610BDD471040872
:10217000583D0408002370B58380114B114D036056
:102180002A68064692F8581009B1D06C00B99068D8
:102190000368DB6A9847B0FA80F42B686409D86C4E
:1021A00028B10368DB6A9847002808BF01242CB9CE
:1021B000054B064A2C21064840F01AFC304670BDFB
:1021C0007C400408606A08203143040896440408EF
:1021D0008F43040810B504462622002140F091FCEC
:1021E0002046FFF7D9F8054B204623600023A36261
:1021F00084F82C30012384F8243010BD7472040854
:10220000F8B51A4B018F1B8806468B4229D9184B0B
:102210001B682BB9174B184A6C21184840F0E8FB93
:1022200013F81120164B1B6853F82250154B1868F1
:1022300003F07EFA2B6807469B6B284698472B686D
:1022400004469B6C3946284698472B6814FB00F4DB
:102250005B6A394628469847A4B22044A6F846004F
:10226000F8BD0023A0F84630FAE700BFBC6A08209A
:10227000B86A0820F33D04086D450408353E04089B
:10228000C06A0820C46A08202DE9F04F0446BBB09C
:10229000002519F0A9FA22464FF6FF77DE4BE563D9
:1022A00042F8403B10461D92FFF7C0FE04F16C035C
:1022B00018461E93FFF7BAFE04F1980318461F93C1
:1022C000FFF7B4FE04F1C40304F5DE7A1846039365
:1022D00010F038FA50463AAEFFF75EF8CF4B26F8CA
:1022E000087D04F5F472C4F8BC3131461046C4F8D8
:1022F000E4511692FFF7AEFE04F5057210462092E7
:10230000FFF794FE04F5107210462192FFF78EFE3F
:1023100004F51B7210462292FFF788FE04F5267220
:1023200010460D92FFF7B0FE04F5387204F54378BD
:1023300010462392FFF77AFE40460FF095FD04F514
:10234000697210460E92FFF79FFE04F57B721046ED
:102350000F92FFF799FE04F234423146104617926D
:10236000ADF8E070FFF776FE04F58C62DFF8E092DE
:1023700010460492FFF788FE04F2AC423146C4F8DE
:1023800060941046C4F8A8541892ADF8E070FFF7B6
:1023900061FE04F59B6210461092FFF775FE04F291
:1023A0002452C4F8D8941046C4F820552492FFF75C
:1023B0003DFE04F5AA6210461192FFF765FE04F592
:1023C000B36210462592FFF731FE954B04F2CC52D2
:1023D000C4F8983531461046C4F8C455A4F8C85519
:1023E0001292ADF8E07013F0B7FB04F5BF6210462F
:1023F000314604F224691392ADF8E07013F0ACFB9F
:102400004B21484612F022F90122864B2946C4F896
:10241000243604F5EE63C4F86027C4F868374A220E
:102420004846C4F86457C4F86C57FFF7B1F87E4BC0
:1024300004F69C02C4F824361046289211F04EFD92
:102440000122C4F8CC280A22C4F8D0284FF0010297
:10245000764B84F8D42804F6DC02C4F89C38104685
:10246000C4F8C858C4F8D8582992FFF765FE704BD5
:1024700004F62812C4F8DC3810462A92FFF75CFEF6
:102480006C4B04F67412C4F8283910462B9211F0E4
:1024900025FD4FF00202684B84F8A02904F6A4122F
:1024A0001046C4F874392C92FFF764FE634B04F6AF
:1024B000B81BC4F8A4392433C4F8AC39C4F8B059F3
:1024C0005846FEF769FF554B3146C4F8B83904F653
:1024D000E4131846C4F8E0591993ADF8E070FFF71B
:1024E000B9FD04F5216318462693FFF79FFD04F616
:1024F0003C2318460593FFF7C7FD04F684231846CE
:102500001A93FFF767FE4E4BA4F8B27AC4F8843AE8
:10251000079304F6BC23A4F8B47A84F8B67AA4F836
:10252000B87A18460693FFF7AFFD04F60433184651
:102530001B93FFF74FFE079BA4F8327BC4F8043BC4
:1025400004F63C33A4F8347B84F8367BA4F8387B5B
:1025500018460793FFF798FD04F68433184608934E
:10256000FFF792FD04F6CC3318460993FFF78CFD74
:1025700004F6144318460A93FFF786FD04F65C43FD
:102580001C931C9A2F4BC4F8702C2422C4F85C3C7A
:102590002D4BC4F8742CC4F86C3CC4F87C3C1C9BD8
:1025A0000122C4F8803C2823C4F8843C04F69443F8
:1025B000C4F8782CC4F8882C1846A4F8685CC4F8D1
:1025C0008C5CC4F8905C0B93FFF704FE1F4BA4F8DF
:1025D000C27CC4F8943C149304F6D443A4F8C47C9D
:1025E000A4F8C67CA4F8C87C84F8CA7C184684F891
:1025F000CB5C84F8CC5CC4F8D05C0C93FFF7EAFDAC
:10260000149BA4F8027DC4F8D43C04F61453A4F837
:10261000047DA4F8067D1DE0F4430408F469040871
:1026200048750408506D04089C400408C43F040821
:10263000947004083471040818700408A06C04082D
:10264000E47204084C4204083442040890760408FA
:10265000683D0408A4F8087D84F80A7D184684F8CB
:102660000B5D84F80C5DC4F8105D149314F0C4FC89
:1026700004F65C531846159314F0BEFC04F6A453FC
:1026800018462793FEF70AFC43F65053E2182D92A2
:10269000C94A4FF4F077E2502D9BC84A5C6043F67C
:1026A0005853E25043F65C53E55043F66053E2184A
:1026B0002E92C34A42F6E061E2502E9BC14A5C6012
:1026C00043F66853E25043F66C5304F56760E550F7
:1026D00015F034FC2A4600974FF4487329461D989C
:1026E000FFF790FC4FF07F43A366231D18461D990A
:1026F0002F930FF07EFC2A4600973A2329461E9816
:10270000FFF780FCB04B1E99C4F89430201D0FF0E9
:1027100070FC2A4600973A2340F2E6211F98FFF703
:1027200071FCAA4B1F99C4F8C030201D0FF061FC4A
:102730002A4629460398FFF758FC4FF00603ADF8E8
:10274000DC304FF00703324637A90398ADF8E0308C
:1027500010F09AF84FF4E4724FF4BE7103980FF042
:102760003DFF322103980FF0CCFE322103980FF089
:1027700033FF974B2A46C4F8C43129461698FFF711
:1027800034FC4FF00D0331461698ADF8E03014F0EC
:10279000FBFA169950460FF02CFC40F24D13BC2763
:1027A0006722009327214FF4A6732098FFF72AFC95
:1027B000884B84F83A72C4F83C32209950460FF0A6
:1027C00018FCA4236A2200934FF4C77140F26F13E0
:1027D0002198FFF717FC7F4B84F86672C4F86832C3
:1027E000219950460FF005FC29236A2200934FF4EB
:1027F000C77140F26F132298FFF704FC764B2299C1
:10280000C4F8943250460FF0F4FB722240F29F114C
:102810000D98FFF7EAFB714B30AFC4F8C8320D9941
:102820003846A4F8CC5213F041FC97E8070004F5B1
:10283000357383E807006A4B3146389314230D98AB
:10284000ADF8E43013F0CCFE0D9950460FF0D1FBFB
:102850003423172200931F2140F2DE232398FFF731
:10286000D1FB6FF016015F4B84F80613C4F80833F0
:10287000239950460FF0BDFB21227E230092404653
:102880004FF41C71FFF7BEFB404654490FF02AFA83
:10289000534B4046389313233146ADF8E4300FF0E4
:1028A00034FA404601210FF02DFB0A234FF00301BB
:1028B0001A46404684F83B1304210FF026FB41469C
:1028C00050460FF096FB1F2240F225110E98FFF79D
:1028D0008CFB4FF0FF313846C4F8D413A4F8D8531A
:1028E0000E9913F0E3FB97E8070004F5787383E88B
:1028F00007003B4B3146389312230E98ADF8E43075
:1029000013F06EFE0E9950460FF073FB26222F2116
:102910000F98FFF76AFB314A0F99C4F81C24384618
:10292000A4F8205413F0C2FB97E8070004F5856370
:1029300083E807002A4B3146389311230F98ADF8EE
:10294000E43013F04DFE0F9950460FF052FB9E22DB
:1029500040F2A5111798FFF748FB0B233146179853
:10296000ADF8E03014F010FA179950460FF041FB23
:10297000A62240F2D3110498FFF737FB4FF07F43B4
:10298000C4F89034D4F86034A4F89454D3F8843064
:1029900004993846984797E8070004F29C4383E877
:1029A0000700114B04F664681B682BBB60210F4BBA
:1029B0000F4A104840F01CF8804204084B1F0008E2
:1029C00098420408671F0008F2F2F2FFF1F1F1FFEC
:1029D0002003E001C6E0C5FFEBEBEBFF4B664AFFCF
:1029E000583D0408C2DEC1FFB86A0820F33D040860
:1029F000A8450408353E0408034B1B88032B09D85F
:102A0000024B034A6121D4E7BC6A0820763E0408E1
:102A1000A8450408DB4B0321186802F089FEDA4A56
:102A20000346032140461AF0FCFBC4F8A88404982E
:102A300013F0B6FD4FF01001D44BADF8E41004983C
:102A40003146389313F0CCFD049950460FF0D1FA7B
:102A5000D82240F2A3111898FFF7C7FA4FF00C01E3
:102A60001898ADF8E010314614F08EF918995046D8
:102A70000FF0BFFA4FF4EC71E0221098FFF7B5FAAF
:102A80004FF07F41C4F808154FF0FF31C4F8181516
:102A9000BF49A4F80C550B68C4F81455C4F81C556C
:102AA00004F66A68002B81D0BA490B88022BA7D99B
:102AB000B44A0221106802F03BFEB34A03460321E8
:102AC00040461AF0AEFBC4F82085109813F068FD5C
:102AD000AE4B314638930F231098ADF8E43013F025
:102AE0007FFD109950460FF084FA4C234FF4B572D5
:102AF000009327214FF4A6732498FFF783FAA64A80
:102B00002499C4F84C2550460FF073FA4FF4C27262
:102B10003A211198FFF769FAA0493846C4F88015A0
:102B2000A4F8845511994FF00E0813F0BFFA97E8F6
:102B300007008E2704F28C5383E80700934B31463D
:102B400011983893ADF8E48013F04AFD119950467E
:102B50000FF04FFA40F26F1340F229124FF4C77191
:102B600025980097FFF74EFA8B4A8D4BC4F8C02585
:102B70004FF00202A4F8C8256FF01602C4F8C4355D
:102B800084F8BE25259950460FF033FA4FF00A021B
:102B900031461298ADF8E02014F0F6F84FF4847343
:102BA00078220093422140F217131298FFF72AFA75
:102BB0002946129812F08AFF129950460FF019FA1E
:102BC00031461398ADF8E08014F0DEF84FF48173CD
:102BD000782200933A2140F227131398FFF712FA54
:102BE0002946139812F072FF84F81D561399504627
:102BF0000FF0FFF940F26F1340F229124FF4C77142
:102C000048460097FFF7FEF92A4601214846FEF79D
:102C10007CFE29464A224846FEF7BAFC17231F22AB
:102C2000009310210223484611F0C2FC02230A2619
:102C30000093072206230121484611F0BCFB2822FD
:102C40000A214846FEF731FD4FF00102D4F8CC18B6
:102C50002D9B06FB01F0534D0028C4F848372E9BEE
:102C6000B8BF4042C4F84C3784F8D428C4F8C858D8
:102C70000122C4F8D00811F04DFD0123C4F8D0089A
:102C8000C4F8CC382899484611F0A0FB4FF00C034B
:102C9000D4F80C19012206FB01F00028B8BF40420D
:102CA000A4F81839C4F81009C4F8085911F032FD15
:102CB0000123C4F81009C4F80C392999484611F0C9
:102CC000A9FB4FF00D03D4F85819012206FB01F0BF
:102CD0000028B8BF4042A4F86439C4F85C09C4F8BD
:102CE000545911F017FD0123C4F85C09C4F8583990
:102CF0002A99484611F07CFB2B4B2B99C4F8B0392C
:102D000045F6BA53A4F8B4392C9B4846C4F89C390C
:102D10004FF0020384F8A03911F058FBD4F858366C
:102D20009FED227A07EE903AF8EEE77A67EE877A1F
:102D3000F5EEC07AF1EE10FAC1F27282B6EE007AC8
:102D400077EE877AFDEEE77A17EE901A484611F093
:102D50003BFDD4F858369FED167A07EE903AF8EE20
:102D6000E77A67EE877AF5EEC07AF1EE10FAC1F2F3
:102D70006C82B6EE007A77EE877AFDEEE77A17EE90
:102D8000901A3DE0C46A0820F03D0408583D04084C
:102D9000B86A0820BC6A0820EBEBEBFF4B664AFFE1
:102DA000859F84FFC59714FFD6B65CFF375AD5417F
:102DB0001BB2004270A2144233761E420EB8194272
:102DC0008E720742B99FDB41FF27AB41D3078D418C
:102DD000F281884114DC9941FC5DB441AD23C841C6
:102DE000903DC941A20BB54157849341ECAF674177
:102DF00020C14B41985D66417FB09A414AD2D04193
:102E0000484611F0E1FCD4F858361FED167A07EE6B
:102E1000903AF8EEE77A67EE877AF5EEC07AF1EE4F
:102E200010FAC1F22782B6EE007A77EE877AFDEECD
:102E3000E77A17EE901A484611F0C6FCD4F85836D7
:102E40001FED237A07EE903AF8EEE77A67EE877A7D
:102E5000F5EEC07AF1EE10FAC1F22182B6EE007AF8
:102E600077EE877AFDEEE77A17EE901A484611F072
:102E7000ABFCD4F858361FED2F7A07EE903AF8EEF7
:102E8000E77A67EE877AF5EEC07AF1EE10FAC1F2D2
:102E90001B82B6EE007A77EE877AFDEEE77A17EEC0
:102EA000901A484611F090FCD4F858361FED3C7A41
:102EB00007EE903AF8EEE77A67EE877AF5EEC07A99
:102EC000F1EE10FAC1F21582B6EE007A77EE877A4B
:102ED000FDEEE77A17EE901A484611F075FCD4F82B
:102EE00058361FED487A07EE903AF8EEE77A67EE2B
:102EF000877AF5EEC07AF1EE10FAC1F20F82B6EEE3
:102F0000007A77EE877AFDEEE77A17EE901A484658
:102F100011F05AFCD4F858361FED557A07EE903A66
:102F2000F8EEE77A67EE877AF5EEC07AF1EE10FAFE
:102F3000C1F20982B6EE007A77EE877AFDEEE77A83
:102F400017EE901A484611F03FFCD4F858361FEDA2
:102F5000617A07EE903AF8EEE77A67EE877AF5EE57
:102F6000C07AF1EE10FAC1F20382B6EE007A77EE83
:102F7000877AFDEEE77A17EE901A484611F024FCA6
:102F8000D4F858361FED6E7A07EE903AF8EEE77AED
:102F900067EE877AF5EEC07AF1EE10FAC1F2FD81A4
:102FA000B6EE007A77EE877AFDEEE77A17EE901AA2
:102FB000484611F009FCD4F858361FED7A7A07EE2E
:102FC000903AF8EEE77A67EE877AF5EEC07AF1EE9E
:102FD00010FAC1F2F781B6EE007A77EE877AFDEE4D
:102FE000E77A17EE901A484611F0EEFBD4F85836FF
:102FF0001FED877A07EE903AF8EEE77A67EE877A68
:10300000F5EEC07AF1EE10FAC1F2F181B6EE007A77
:1030100077EE877AFDEEE77A17EE901A484611F0C0
:10302000D3FBD4F858361FED937A07EE903AF8EEBA
:10303000E77A67EE877AF5EEC07AF1EE10FAC1F220
:10304000EB81B6EE007A77EE877AFDEEE77A17EE3F
:10305000901A484611F0B8FBD4F858361FEDA07A04
:1030600007EE903AF8EEE77A67EE877AF5EEC07AE7
:10307000F1EE10FAC1F2E581B6EE007A77EE877ACA
:10308000FDEEE77A17EE901A484611F09DFBD4F852
:1030900058361FEDAC7A07EE903AF8EEE77A67EE15
:1030A000877AF5EEC07AF1EE10FAC1F2DF81B6EE62
:1030B000007A77EE877AFDEEE77A17EE901A4846A7
:1030C00011F082FBD4F858361FEDB97A07EE903A2A
:1030D000F8EEE77A67EE877AF5EEC07AF1EE10FA4D
:1030E000C1F2D981B6EE007A77EE877AFDEEE77A03
:1030F00017EE901A484611F067FBD4F858361FEDCA
:10310000C57A07EE903AF8EEE77A67EE877AF5EE41
:10311000C07AF1EE10FAC1F2D381B6EE007A77EE02
:10312000877AFDEEE77A17EE901A484611F04CFBCD
:10313000D4F858361FEDD27A07EE903AF8EEE77AD7
:1031400067EE877AF5EEC07AF1EE10FAC1F2CD8122
:10315000B6EE007A77EE877AFDEEE77A17EE901AF0
:10316000484611F031FBD4F858361FEDDE7A07EEF1
:10317000903AF8EEE77A67EE877AF5EEC07AF1EEEC
:1031800010FAC1F2C781B6EE007A77EE877AFDEECB
:10319000E77A17EE901A484611F016FBD4F8583625
:1031A0001FEDEB7A07EE903AF8EEE77A67EE877A52
:1031B000F5EEC07AF1EE10FAC1F2C181B6EE007AF6
:1031C00077EE877AFDEEE77A17EE901A484611F00F
:1031D000FBFAD4F858361FEDF77A07EE903AF8EE7E
:1031E000E77A67EE877AF5EEC07AF1EE10FAC1F26F
:1031F000BB81B6EE007A77EE877AFDEEE77A17EEBE
:10320000901A484611F0E0FAD4F858369FEDFE7A4D
:1032100007EE903AF8EEE77A67EE877AF5EEC07A35
:10322000F1EE10FAC1F2B581B6EE007A77EE877A48
:10323000FDEEE77A17EE901A484611F0C5FAD4F879
:1032400058369FEDF27A07EE903AF8EEE77A67EE9D
:10325000877AF5EEC07AF1EE10FAC1F2AF81B6EEE0
:10326000007A77EE877AFDEEE77A17EE901A4846F5
:1032700011F0AAFAD4F858369FEDE57A07EE903AA5
:10328000F8EEE77A67EE877AF5EEC07AF1EE10FA9B
:10329000C1F2A981B6EE007A77EE877AFDEEE77A81
:1032A00017EE901A484611F08FFAD4F858369FED71
:1032B000D97A07EE903AF8EEE77A67EE877AF5EE7C
:1032C000C07AF1EE10FAC1F2A381B6EE007A77EE81
:1032D000877AFDEEE77A17EE901A484611F074FAF5
:1032E000D4F858369FEDCC7A07EE903AF8EEE77AAC
:1032F00067EE877AF5EEC07AF1EE10FAC1F29D81A1
:10330000B6EE007A77EE877AFDEEE77A17EE901A3E
:10331000484611F059FAD4F858369FEDC07A07EEB6
:10332000903AF8EEE77A67EE877AF5EEC07AF1EE3A
:1033300010FAC1F29781B6EE007A77EE877AFDEE49
:10334000E77A17EE901A484611F03EFAD4F858364C
:103350009FEDB37A07EE903AF8EEE77A67EE877A58
:10336000F5EEC07AF1EE10FAC1F29181B6EE007A74
:1033700077EE877AFDEEE77A17EE901A484611F05D
:1033800023FAD4F858369FEDA77A07EE903AF8EE74
:10339000E77A67EE877AF5EEC07AF1EE10FAC1F2BD
:1033A0008B81B6EE007A77EE877AFDEEE77A17EE3C
:1033B000901A484611F008FAD4F858369FED9A7AD8
:1033C00007EE903AF8EEE77A67EE877AF5EEC07A84
:1033D000F1EE10FAC1F28581B6EE007A77EE877AC7
:1033E000FDEEE77A17EE901A484611F0EDF9D4F8A1
:1033F00058369FED8E7A07EE903AF8EEE77A67EE50
:10340000877AF5EEC07AF1EE10FAC1F27F81B6EE5E
:10341000007A77EE877AFDEEE77A17EE901A484643
:1034200011F0D2F9D4F858369FED817A07EE903A30
:10343000F8EEE77A67EE877AF5EEC07AF1EE10FAE9
:10344000C1F27981B6EE007A77EE877AFDEEE77AFF
:1034500017EE901A484611F0B7F9D4F858369FED98
:10346000757A07EE903AF8EEE77A67EE877AF5EE2E
:10347000C07AF1EE10FAC1F27381B6EE007A77EEFF
:10348000877AFDEEE77A17EE901A484611F09CF91C
:10349000D4F858369FED687A07EE903AF8EEE77A5E
:1034A00067EE877AF5EEC07AF1EE10FAC1F26D811F
:1034B000B6EE007A77EE877AFDEEE77A17EE901A8D
:1034C000484611F081F9D4F858369FED5C7A07EE42
:1034D000903AF8EEE77A67EE877AF5EEC07AF1EE89
:1034E00010FAC1F26781B6EE007A77EE877AFDEEC8
:1034F000E77A17EE901A484611F066F9D4F8583674
:103500009FED4F7A07EE903AF8EEE77A67EE877A0A
:10351000F5EEC07AF1EE10FAC1F26181B6EE007AF2
:1035200077EE877AFDEEE77A17EE901A484611F0AB
:103530004BF9D4F858369FED437A07EE903AF8EEFF
:10354000E77A67EE877AF5EEC07AF1EE10FAC1F20B
:103550005B81B6EE007A77EE877AFDEEE77A17EEBA
:10356000901A484611F030F9D4F858369FED367A63
:1035700007EE903AF8EEE77A67EE877AF5EEC07AD2
:10358000F1EE10FAC1F25581B6EE007A77EE877A45
:10359000FDEEE77A17EE901A484611F015F9D4F8C7
:1035A00058369FED2A7A07EE903AF8EEE77A67EE02
:1035B000877AF5EEC07AF1EE10FAC1F24F81B6EEDD
:1035C000007A77EE877AFDEEE77A17EE901A484692
:1035D00011F0FAF8D4F858369FED1D7A07EE903ABC
:1035E000F8EEE77A67EE877AF5EEC07AF1EE10FA38
:1035F000C1F24981B6EE007A77EE877AFDEEE77A7E
:1036000017EE901A4CE000BFFC0902421C10124257
:10361000C532144223B20942F84DF141D792D2414A
:1036200060B6C441727FCC41A301E4418155FD41A4
:10363000186904425019FC413BEAD641D8A4A34181
:1036400068796641B1A22C412FB42C41A09A634104
:103650006FE49C4143A7C6416C15E041D85EE2414E
:10366000B184D1415148BA419750AC41F30EB341B6
:103670002176D041F7CCFB41649212423AFE1D42C2
:10368000F61D1B4244460A42FD30E2413D6CB0410A
:103690000D6B8F41C1B387413CE59641A222B141F8
:1036A000484611F091F8D4F858361FED167A07EE17
:1036B000903AF8EEE77A67EE877AF5EEC07AF1EEA7
:1036C00010FAC1F2F580B6EE007A77EE877AFDEE59
:1036D000E77A17EE901A484611F076F8D4F8583683
:1036E0001FED237A07EE903AF8EEE77A67EE877AD5
:1036F000F5EEC07AF1EE10FAC1F2EF80B6EE007A84
:1037000077EE877AFDEEE77A17EE901A484611F0C9
:103710005BF8D4F858361FED2F7A07EE903AF8EEA2
:10372000E77A67EE877AF5EEC07AF1EE10FAC1F229
:10373000E980B6EE007A77EE877AFDEEE77A17EE4B
:10374000901A484611F040F8D4F858361FED3C7AEC
:1037500007EE903AF8EEE77A67EE877AF5EEC07AF0
:10376000F1EE10FAC1F2E380B6EE007A77EE877AD6
:10377000FDEEE77A17EE901A484611F025F8D4F8D6
:1037800058361FED487A07EE903AF8EEE77A67EE82
:10379000877AF5EEC07AF1EE10FAC1F2DD80B6EE6E
:1037A000007A77EE877AFDEEE77A17EE901A4846B0
:1037B00011F00AF8D4F858361FED557A07EE903A12
:1037C000F8EEE77A67EE877AF5EEC07AF1EE10FA56
:1037D000C1F2D780B6EE007A77EE877AFDEEE77A0F
:1037E00017EE901A484610F0EFFFD4F858361FED48
:1037F000617A07EE903AF8EEE77A67EE877AF5EEAF
:10380000C07AF1EE10FAC1F2D180B6EE007A77EE0E
:10381000877AFDEEE77A17EE901A484610F0D4FF4B
:10382000D4F858361FED6E7A07EE903AF8EEE77A44
:1038300067EE877AF5EEC07AF1EE10FAC1F2CB802E
:10384000B6EE007A77EE877AFDEEE77A17EE901AF9
:10385000484610F0B9FFD4F858361FED7A7A07EED3
:10386000903AF8EEE77A67EE877AF5EEC07AF1EEF5
:1038700010FAC1F2C580B6EE007A77EE877AFDEED7
:10388000E77A17EE901A484610F09EFFD4F85836A3
:103890001FED877A07EE903AF8EEE77A67EE877ABF
:1038A000F5EEC07AF1EE10FAC1F2BF80B6EE007A02
:1038B00077EE877AFDEEE77A17EE901A484610F019
:1038C00083FFD4F858361FED937A07EE903AF8EE5E
:1038D000E77A67EE877AF5EEC07AF1EE10FAC1F278
:1038E000B980B6EE007A77EE877AFDEEE77A17EECA
:1038F000901A484610F068FFD4F858361FEDA07AA9
:1039000007EE903AF8EEE77A67EE877AF5EEC07A3E
:10391000F1EE10FAC1F2B380B6EE007A77EE877A54
:10392000FDEEE77A17EE901A484610F04DFFD4F8F6
:1039300058361FEDAC7A07EE903AF8EEE77A67EE6C
:10394000877AF5EEC07AF1EE10FAC1F2AD80B6EEEC
:10395000007A77EE877AFDEEE77A17EE901A4846FE
:1039600010F032FFD4F858361FEDB97A07EE903ACE
:10397000F8EEE77A67EE877AF5EEC07AF1EE10FAA4
:10398000C1F2A780B6EE007A77EE877AFDEEE77A8D
:1039900017EE901A484610F017FFD4F858361FED6E
:1039A000C57A07EE903AF8EEE77A67EE877AF5EE99
:1039B000C07AF1EE10FAC1F2A180B6EE007A77EE8D
:1039C000877AFDEEE77A17EE901A484610F0FCFE73
:1039D000D4F858361FEDD27A07EE903AF8EEE77A2F
:1039E00067EE877AF5EEC07AF1EE10FAC1F29B80AD
:1039F000B6EE007A77EE877AFDEEE77A17EE901A48
:103A0000484610F0E1FED4F858361FEDDE7A07EE96
:103A1000903AF8EEE77A67EE877AF5EEC07AF1EE43
:103A200010FAC1F29580B6EE007A77EE877AFDEE55
:103A3000E77A17EE901A484610F0C6FED4F85836CA
:103A40001FEDEB7A07EE903AF8EEE77A67EE877AA9
:103A5000F5EEC07AF1EE10FAC1F28F80B6EE007A80
:103A600077EE877AFDEEE77A17EE901A484610F067
:103A7000ABFED4F858361FEDF77A07EE903AF8EE21
:103A8000E77A67EE877AF5EEC07AF1EE10FAC1F2C6
:103A90008980B6EE007A77EE877AFDEEE77A17EE48
:103AA000901A484610F090FED4F858369FEDF77AF9
:103AB00007EE903AF8EEE77A67EE877AF5EEC07A8D
:103AC000F1EE10FAC1F28380B6EE007A77EE877AD3
:103AD000FDEEE77A17EE901A484610F075FED4F81E
:103AE00058369FEDEB7A07EE903AF8EEE77A67EEFC
:103AF000877AF5EEC07AF1EE10FAC1F27D80B6EE6B
:103B0000007A77EE877AFDEEE77A17EE901A48464C
:103B100010F05AFED4F858369FEDDE7A07EE903A50
:103B2000F8EEE77A67EE877AF5EEC07AF1EE10FAF2
:103B3000C1F27780B6EE007A77EE877AFDEEE77A0B
:103B400017EE901A484610F03FFED4F858369FED15
:103B5000D27A07EE903AF8EEE77A67EE877AF5EEDA
:103B6000C07AF1EE10FAC1F27180B6EE007A77EE0B
:103B7000877AFDEEE77A17EE901A484610F024FE99
:103B8000D4F858369FEDC57A07EE903AF8EEE77A0A
:103B900067EE877AF5EEC07AF1EE10FAC1F26B802B
:103BA000B6EE007A77EE877AFDEEE77A17EE901A96
:103BB000484610F009FED4F858369FEDB97A07EE62
:103BC000903AF8EEE77A67EE877AF5EEC07AF1EE92
:103BD00010FAC1F26580B6EE007A77EE877AFDEED4
:103BE000E77A17EE901A484610F0EEFDD4F85836F2
:103BF0009FEDAC7A07EE903AF8EEE77A67EE877AB7
:103C0000F5EEC07AF1EE10FAC1F25F80B6EE007AFE
:103C100077EE877AFDEEE77A17EE901A484610F0B5
:103C2000D3FDD4F858369FEDA07A07EE903AF8EE1F
:103C3000E77A67EE877AF5EEC07AF1EE10FAC1F214
:103C40005980B6EE007A77EE877AFDEEE77A17EEC6
:103C5000901A484610F0B8FDD4F858369FED937A84
:103C600007EE903AF8EEE77A67EE877AF5EEC07ADB
:103C7000F1EE10FAC1F25380B6EE007A77EE877A51
:103C8000FDEEE77A17EE901A484610F09DFDD4F845
:103C900058369FED877A07EE903AF8EEE77A67EEAE
:103CA000877AF5EEC07AF1EE10FAC1F24D80B6EEE9
:103CB000007A77EE877AFDEEE77A17EE901A48469B
:103CC00010F082FDD4F858369FED7A7A07EE903ADC
:103CD000F8EEE77A67EE877AF5EEC07AF1EE10FA41
:103CE000C1F24780B6EE007A77EE877AFDEEE77A8A
:103CF00017EE901A484610F067FDD4F858369FED3D
:103D00006E7A07EE903AF8EEE77A67EE877AF5EE8C
:103D1000C07AF1EE10FAC1F24180B6EE007A77EE89
:103D2000877AFDEEE77A17EE901A484610F04CFDC0
:103D3000D4F858369FED617A07EE903AF8EEE77ABC
:103D400067EE877AF5EEC07AF1EE10FAC1F23B80A9
:103D5000B6EE007A77EE877AFDEEE77A17EE901AE4
:103D6000484610F031FDD4F858369FED557A07EEED
:103D7000903AF8EEE77A67EE877AF5EEC07AF1EEE0
:103D800010FAC1F23580B6EE007A77EE877AFDEE52
:103D9000E77A17EE901A484610F016FDD4F8583618
:103DA0009FED487A07EE903AF8EEE77A67EE877A69
:103DB000F5EEC07AF1EE10FAC1F22F80B6EE007A7D
:103DC00077EE877AFDEEE77A17EE901A484610F004
:103DD000FBFCD4F858369FED3C7A07EE903AF8EEAB
:103DE000E77A67EE877AF5EEC07AF1EE10FAC1F263
:103DF0002B80B6EE007A77EE877AFDEEE77A17EE43
:103E0000901A484610F0E0FC494650460EF0F1F892
:103E1000514603980EF0AFFD00222C4B1146C4F81A
:103E2000C0391998FEF7E1F80D233AAE26F8083D9F
:103E30003146199812F0A8FF199958460EF0D9F892
:103E4000342317220093269840F2DE231F21FEF729
:103E5000D9F81F4B0027C4F8383AE923DFF87490EB
:103E600084F8363A2699584630AD0EF0C2F81F2233
:103E700005984FF49071FEF7B8F8C4F86C9A05995C
:103E80002846A4F8707A12F011F925E0B988C641E5
:103E9000C54FCA411086B84155EA974160306E411E
:103EA000ED754C41F7F55F4100AF944156E5C941CE
:103EB0006B7DFE4178CB1042DFB214429A820B42F6
:103EC00049AEF541ABACD541AC3FC5412003E00163
:103ED000C2DEC1FF4B664AFF95E80700059BDFF88D
:103EE000648F3C3383E807000B2331460598ADF817
:103EF000E430CDF8E08012F073FB059958460EF0DF
:103F000078F84FF0080A1A9878224FF40771FEF7F4
:103F10006CF84FF009033246A4F8B8AA37A91A98EA
:103F2000ADF8DC30ADF8E0A012F082FD1A995846E9
:103F30000EF05FF828238C220093069840F26F134E
:103F40006121FEF75FF8C4F8EC9A06992846A4F8B8
:103F5000F07A12F0ABF895E80700069BCDF8E08008
:103F60003C3383E807000A2331460698ADF8E43075
:103F700012F036FB069958460EF03BF81B98C82203
:103F800040F21E21FEF731F84FF009033246A4F843
:103F900038AB37A91B98ADF8DC30ADF8E0A012F0D3
:103FA00047FD1B9958460EF024F82623D322009390
:103FB000079840F26F135221FEF724F8C4F86C9B67
:103FC00007992846A4F8707B12F070F895E807006E
:103FD000079BCDF8E0803C3383E807004FF00903EE
:103FE00031460798ADF8E43012F0FAFA07995846CE
:103FF0000DF0FFFF2B2340F21F120093089840F2B0
:104000006F133A21FDF7FEFFC4F8B49B08992846C8
:10401000A4F8B87B12F04AF895E80700ADF8E4A0E0
:104020004FF01A0A089BCDF8E0803C3383E8070084
:104030003146089812F0D4FA089958460DF0D9FF85
:10404000CDF800A04D2340F2271209984FF4E871F3
:10405000FDF7D8FFC4F8FC9B09992846A4F8007C1A
:1040600012F024F895E80700099BCDF8E0803C3376
:1040700083E80700072331460998ADF8E43012F0D1
:10408000AFFA099958460DF0B4FFCDF800A04D23C2
:1040900040F227120A9840F25521FDF7B3FFC4F809
:1040A000449C0A992846A4F8487C11F0FFFF95E843
:1040B00007000A9B04253C3383E807000623CDF85C
:1040C000E0804FF0020A4FF005084FF00309314637
:1040D0000A98ADF8E43012F083FA0A9958460DF0C8
:1040E00088FF0B984FF4917240F2A221FDF77DFFFB
:1040F00037AB36AA35A90B980096ADF8D890ADF835
:10410000E080ADF8D4A0ADF8DC5012F0A4FF394641
:104110000B9813F041F80B991C9884F8CC7CFDF7B0
:10412000E3FE0B9958460DF064FF0C984FF4917222
:1041300040F21D21FDF759FFADF8D8904FF001096D
:1041400037AB36AA35A90C980096ADF8E080ADF8EB
:10415000D4A0ADF8DC5012F07EFF39460C9813F075
:104160001BF80C991C9884F80C7DFDF7BDFE0C998A
:1041700058460DF03EFF14984FF4B6727921FDF7C2
:1041800034FF324637A91498ADF8DC70ADF8E090F2
:1041900012F04EFCA4F84C8D4FF0FF381498FEF747
:1041A0002FF814995846C4F8508DC4F8548D0DF06A
:1041B00020FF15984FF4B6724FF4EC71FDF715FF20
:1041C000324637A91598ADF8DC70ADF8E09012F0E2
:1041D0002FFC1598A4F8945DFEF712F8159958462F
:1041E000C4F8988DC4F89C8D0DF003FF59460398D0
:1041F0000EF0C1FB394603980EF0AEFB039960192F
:104200000DF0F7FE6FF01D0239462798FDF7EDFE21
:10421000601927990DF0EDFE20463BB0BDE8F08F08
:10422000BDEEE77AF8EEC76A77EEE67AF7EE086A4F
:1042300077EEA67A17EE103AFDEEE77A591E17EEE2
:10424000903A0B441946FEF781BDBDEEE77AF8EED1
:10425000C76A77EEE67AF7EE086A77EEA67A17EE87
:10426000103AFDEEE77A591E17EE903A0B441946C4
:10427000FEF7C6BDBDEEE77AF8EEC76A77EEE67ADE
:10428000F7EE086A77EEA67A17EE103AFDEEE77AB7
:10429000591E17EE903A0B441946FEF7CCBDBDEE01
:1042A000E77AF8EEC76A77EEE67AF7EE086A77EE15
:1042B000A67A17EE103AFDEEE77A591E17EE903AFD
:1042C0000B441946FEF7D2BDBDEEE77AF8EEC76A99
:1042D00077EEE67AF7EE086A77EEA67A17EE103AEE
:1042E000FDEEE77A591E17EE903A0B441946FEF799
:1042F000D8BDBDEEE77AF8EEC76A77EEE67AF7EE5C
:10430000086A77EEA67A17EE103AFDEEE77A591EA4
:1043100017EE903A0B441946FEF7DEBDBDEEE77A84
:10432000F8EEC76A77EEE67AF7EE086A77EEA67AD5
:1043300017EE103AFDEEE77A591E17EE903A0B444D
:104340001946FEF7E4BDBDEEE77AF8EEC76A77EEF0
:10435000E67AF7EE086A77EEA67A17EE103AFDEEE7
:10436000E77A591E17EE903A0B441946FEF7EABD5C
:10437000BDEEE77AF8EEC76A77EEE67AF7EE086AFE
:1043800077EEA67A17EE103AFDEEE77A591E17EE91
:10439000903A0B441946FEF7F0BDBDEEE77AF8EE11
:1043A000C76A77EEE67AF7EE086A77EEA67A17EE36
:1043B000103AFDEEE77A591E17EE903A0B44194673
:1043C000FEF7F6BDBDEEE77AF8EEC76A77EEE67A5D
:1043D000F7EE086A77EEA67A17EE103AFDEEE77A66
:1043E000591E17EE903A0B441946FEF7FCBDBDEE80
:1043F000E77AF8EEC76A77EEE67AF7EE086A77EEC4
:10440000A67A17EE103AFDEEE77A591E17EE903AAB
:104410000B441946FEF702BEBDEEE77AF8EEC76A16
:1044200077EEE67AF7EE086A77EEA67A17EE103A9C
:10443000FDEEE77A591E17EE903A0B441946FEF747
:1044400008BEBDEEE77AF8EEC76A77EEE67AF7EED9
:10445000086A77EEA67A17EE103AFDEEE77A591E53
:1044600017EE903A0B441946FEF70EBEBDEEE77A02
:10447000F8EEC76A77EEE67AF7EE086A77EEA67A84
:1044800017EE103AFDEEE77A591E17EE903A0B44FC
:104490001946FEF714BEBDEEE77AF8EEC76A77EE6E
:1044A000E67AF7EE086A77EEA67A17EE103AFDEE96
:1044B000E77A591E17EE903A0B441946FEF71ABEDA
:1044C000BDEEE77AF8EEC76A77EEE67AF7EE086AAD
:1044D00077EEA67A17EE103AFDEEE77A591E17EE40
:1044E000903A0B441946FEF720BEBDEEE77AF8EE8F
:1044F000C76A77EEE67AF7EE086A77EEA67A17EEE5
:10450000103AFDEEE77A591E17EE903A0B44194621
:10451000FEF726BEBDEEE77AF8EEC76A77EEE67ADA
:10452000F7EE086A77EEA67A17EE103AFDEEE77A14
:10453000591E17EE903A0B441946FEF72CBEBDEEFD
:10454000E77AF8EEC76A77EEE67AF7EE086A77EE72
:10455000A67A17EE103AFDEEE77A591E17EE903A5A
:104560000B441946FEF732BEBDEEE77AF8EEC76A95
:1045700077EEE67AF7EE086A77EEA67A17EE103A4B
:10458000FDEEE77A591E17EE903A0B441946FEF7F6
:1045900038BEBDEEE77AF8EEC76A77EEE67AF7EE58
:1045A000086A77EEA67A17EE103AFDEEE77A591E02
:1045B00017EE903A0B441946FEF73EBEBDEEE77A81
:1045C000F8EEC76A77EEE67AF7EE086A77EEA67A33
:1045D00017EE103AFDEEE77A591E17EE903A0B44AB
:1045E0001946FEF744BEBDEEE77AF8EEC76A77EEED
:1045F000E67AF7EE086A77EEA67A17EE103AFDEE45
:10460000E77A591E17EE903A0B441946FEF74ABE58
:10461000BDEEE77AF8EEC76A77EEE67AF7EE086A5B
:1046200077EEA67A17EE103AFDEEE77A591E17EEEE
:10463000903A0B441946FEF750BEBDEEE77AF8EE0D
:10464000C76A77EEE67AF7EE086A77EEA67A17EE93
:10465000103AFDEEE77A591E17EE903A0B441946D0
:10466000FEF756BEBDEEE77AF8EEC76A77EEE67A59
:10467000F7EE086A77EEA67A17EE103AFDEEE77AC3
:10468000591E17EE903A0B441946FEF75CBEBDEE7C
:10469000E77AF8EEC76A77EEE67AF7EE086A77EE21
:1046A000A67A17EE103AFDEEE77A591E17EE903A09
:1046B0000B441946FEF762BEBDEEE77AF8EEC76A14
:1046C00077EEE67AF7EE086A77EEA67A17EE103AFA
:1046D000FDEEE77A591E17EE903A0B441946FEF7A5
:1046E00068BEBDEEE77AF8EEC76A77EEE67AF7EED7
:1046F000086A77EEA67A17EE103AFDEEE77A591EB1
:1047000017EE903A0B441946FEF76EBEBDEEE77AFF
:10471000F8EEC76A77EEE67AF7EE086A77EEA67AE1
:1047200017EE103AFDEEE77A591E17EE903A0B4459
:104730001946FEF774BEBDEEE77AF8EEC76A77EE6B
:10474000E67AF7EE086A77EEA67A17EE103AFDEEF3
:10475000E77A591E17EE903A0B441946FEF77ABED7
:10476000BDEEE77AF8EEC76A77EEE67AF7EE086A0A
:1047700077EEA67A17EE103AFDEEE77A591E17EE9D
:10478000903A0B441946FEF780BEBDEEE77AF8EE8C
:10479000C76A77EEE67AF7EE086A77EEA67A17EE42
:1047A000103AFDEEE77A591E17EE903A0B4419467F
:1047B000FEF786BEBDEEE77AF8EEC76A77EEE67AD8
:1047C000F7EE086A77EEA67A17EE103AFDEEE77A72
:1047D000591E17EE903A0B441946FEF78CBEBDEEFB
:1047E000E77AF8EEC76A77EEE67AF7EE086A77EED0
:1047F000A67A17EE103AFDEEE77A591E17EE903AB8
:104800000B441946FEF792BEBDEEE77AF8EEC76A92
:1048100077EEE67AF7EE086A77EEA67A17EE103AA8
:10482000FDEEE77A591E17EE903A0B441946FEF753
:1048300098BEBDEEE77AF8EEC76A77EEE67AF7EE55
:10484000086A77EEA67A17EE103AFDEEE77A591E5F
:1048500017EE903A0B441946FEF79EBEBDEEE77A7E
:10486000F8EEC76A77EEE67AF7EE086A77EEA67A90
:1048700017EE103AFDEEE77A591E17EE903A0B4408
:104880001946FEF7A4BEBDEEE77AF8EEC76A77EEEA
:10489000E67AF7EE086A77EEA67A17EE103AFDEEA2
:1048A000E77A591E17EE903A0B441946FEF7F8BE08
:1048B000BDEEE77AF8EEC76A77EEE67AF7EE086AB9
:1048C00077EEA67A17EE103AFDEEE77A591E17EE4C
:1048D000903A0B441946FEF7FEBEBDEEE77AF8EEBD
:1048E000C76A77EEE67AF7EE086A77EEA67A17EEF1
:1048F000103AFDEEE77A591E17EE903A0B4419462E
:10490000FEF704BFBDEEE77AF8EEC76A77EEE67A07
:10491000F7EE086A77EEA67A17EE103AFDEEE77A20
:10492000591E17EE903A0B441946FEF70ABFBDEE2A
:10493000E77AF8EEC76A77EEE67AF7EE086A77EE7E
:10494000A67A17EE103AFDEEE77A591E17EE903A66
:104950000B441946FEF710BFBDEEE77AF8EEC76AC2
:1049600077EEE67AF7EE086A77EEA67A17EE103A57
:10497000FDEEE77A591E17EE903A0B441946FEF702
:1049800016BFBDEEE77AF8EEC76A77EEE67AF7EE85
:10499000086A77EEA67A17EE103AFDEEE77A591E0E
:1049A00017EE903A0B441946FEF71CBFBDEEE77AAE
:1049B000F8EEC76A77EEE67AF7EE086A77EEA67A3F
:1049C00017EE103AFDEEE77A591E17EE903A0B44B7
:1049D0001946FEF722BFBDEEE77AF8EEC76A77EE1A
:1049E000E67AF7EE086A77EEA67A17EE103AFDEE51
:1049F000E77A591E17EE903A0B441946FEF728BF86
:104A0000BDEEE77AF8EEC76A77EEE67AF7EE086A67
:104A100077EEA67A17EE103AFDEEE77A591E17EEFA
:104A2000903A0B441946FEF72EBFBDEEE77AF8EE3A
:104A3000C76A77EEE67AF7EE086A77EEA67A17EE9F
:104A4000103AFDEEE77A591E17EE903A0B441946DC
:104A5000FEF734BFBDEEE77AF8EEC76A77EEE67A86
:104A6000F7EE086A77EEA67A17EE103AFDEEE77ACF
:104A7000591E17EE903A0B441946FEF73ABFBDEEA9
:104A8000E77AF8EEC76A77EEE67AF7EE086A77EE2D
:104A9000A67A17EE103AFDEEE77A591E17EE903A15
:104AA0000B441946FEF740BFBDEEE77AF8EEC76A41
:104AB00077EEE67AF7EE086A77EEA67A17EE103A06
:104AC000FDEEE77A591E17EE903A0B441946FEF7B1
:104AD00046BFBDEEE77AF8EEC76A77EEE67AF7EE04
:104AE000086A77EEA67A17EE103AFDEEE77A591EBD
:104AF00017EE903A0B441946FEF74CBFBDEEE77A2D
:104B0000F8EEC76A77EEE67AF7EE086A77EEA67AED
:104B100017EE103AFDEEE77A591E17EE903A0B4465
:104B20001946FEF752BFBDEEE77AF8EEC76A77EE98
:104B3000E67AF7EE086A77EEA67A17EE103AFDEEFF
:104B4000E77A591E17EE903A0B441946FEF758BF04
:104B5000BDEEE77AF8EEC76A77EEE67AF7EE086A16
:104B600077EEA67A17EE103AFDEEE77A591E17EEA9
:104B7000903A0B441946FEF75EBFBDEEE77AF8EEB9
:104B8000C76A77EEE67AF7EE086A77EEA67A17EE4E
:104B9000103AFDEEE77A591E17EE903A0B4419468B
:104BA000FEF764BFBDEEE77AF8EEC76A77EEE67A05
:104BB000F7EE086A77EEA67A17EE103AFDEEE77A7E
:104BC000591E17EE903A0B441946FEF76ABFBDEE28
:104BD000E77AF8EEC76A77EEE67AF7EE086A77EEDC
:104BE000A67A17EE103AFDEEE77A591E17EE903AC4
:104BF0000B441946FEF770BFBDEEE77AF8EEC76AC0
:104C000077EEE67AF7EE086A77EEA67A17EE103AB4
:104C1000FDEEE77A591E17EE903A0B441946FEF75F
:104C200076BFBDEEE77AF8EEC76A77EEE67AF7EE82
:104C3000086A77EEA67A17EE103AFDEEE77A591E6B
:104C400017EE903A0B441946FEF77CBFBDEEE77AAB
:104C5000F8EEC76A77EEE67AF7EE086A77EEA67A9C
:104C600017EE103AFDEEE77A591E17EE903A0B4414
:104C70001946FEF782BFBDEEE77AF8EEC76A77EE17
:104C8000E67AF7EE086A77EEA67A17EE103AFDEEAE
:104C9000E77A591E17EE903A0B441946FEF788BF83
:104CA000BDEEE77AF8EEC76A77EEE67AF7EE086AC5
:104CB00077EEA67A17EE103AFDEEE77A591E17EE58
:104CC000903A0B441946FEF78EBFBDEEE77AF8EE38
:104CD000C76A77EEE67AF7EE086A77EEA67A17EEFD
:104CE000103AFDEEE77A591E17EE903A0B4419463A
:104CF000FEF794BFBDEEE77AF8EEC76A77EEE67A84
:104D0000F7EE086A77EEA67A17EE103AFDEEE77A2C
:104D1000591E17EE903A0B441946FEF79ABFBDEEA6
:104D2000E77AF8EEC76A77EEE67AF7EE086A77EE8A
:104D3000A67A17EE103AFDEEE77A591E17EE903A72
:104D40000B441946FEF7A0BFBDEEE77AF8EEC76A3E
:104D500077EEE67AF7EE086A77EEA67A17EE103A63
:104D6000FDEEE77A591E17EE903A0B441946FEF70E
:104D7000A6BFBDEEE77AF8EEC76A77EEE67AF7EE01
:104D8000086A77EEA67A17EE103AFDEEE77A591E1A
:104D900017EE903A0B441946FEF7ACBFBDEEE77A2A
:104DA000F8EEC76A77EEE67AF7EE086A77EEA67A4B
:104DB00017EE103AFDEEE77A591E17EE903A0B44C3
:104DC0001946FEF7B2BFBDEEE77AF8EEC76A77EE96
:104DD000E67AF7EE086A77EEA67A17EE103AFDEE5D
:104DE000E77A591E17EE903A0B441946FEF7B8BF02
:104DF000BDEEE77AF8EEC76A77EEE67AF7EE086A74
:104E000077EEA67A17EE103AFDEEE77A591E17EE06
:104E1000903A0B441946FEF7BEBFBDEEE77AF8EEB6
:104E2000C76A77EEE67AF7EE086A77EEA67A17EEAB
:104E3000103AFDEEE77A591E17EE903A0B441946E8
:104E4000FEF7C4BF583D0408BDEEE77AF8EEC76A26
:104E500077EEE67AF7EE086A77EEA67A17EE103A62
:104E6000FDEEE77A591E17EE903A0B441946FEF70D
:104E7000C8BF00BF10B50446084B036013F068F8C4
:104E8000074B04F6A450C4F8A43DFCF72EFA04F135
:104E9000C4000DF041FB204610BD00BFF4430408E0
:104EA000343B040810B50446FFF7E4FF204643F600
:104EB00070513CF0CFF9204610BD704770477047E5
:104EC0004160704770470123037270477047704715
:104ED000034610B4C46841686210E40701EB0200A5
:104EE0009B6848BF8A585DF8044B48BFD3581847A1
:104EF00043682BB183682BB9C06800F0010070478C
:104F0000184670470120704710B504460C213CF04C
:104F1000A1F9204610BD10B504464FF4AE713CF027
:104F200099F9204610BD10B5044610213CF092F9C5
:104F3000204610BD10B514F0D7FCBDE81040036842
:104F4000DB6B1847F8B50446002517460E4614F0EB
:104F5000D7FD104BC4F83C511C600F4BC4F84051B6
:104F600023600E4BC4F84851C4F844310C4BC4F8CC
:104F70004C511868C4F85051C4F85471C4F85861C1
:104F8000036829469B689847284600F097FB20460F
:104F9000F8BD00BFB46A082000460408E8450408CC
:104FA000606A0820064BC0F84801C0F84C31002365
:104FB000C0F8503100F5A273C0F84031704700BF0F
:104FC000055100082DE9F0470746906899460368A7
:104FD00088461B6A1546DDF820A09847B0F5765F35
:104FE00005D2A321414B424A42483DF001FD686889
:104FF00003681B6A98470F2803D83F4B3C4AA421FB
:10500000F2E7E86803681B6A98470B2803D83B4B14
:10501000374AA521E8E714F067FC043014F0A2FC3D
:10502000D9F8000010B10368DB689847D9F8000090
:1050300010B103681B689847386810B103685B6952
:105040009847D8F8000010B103685B689847386843
:1050500010B103681B689847D8F8000010B10368C6
:105060009B689847E868002103685B6A9847044694
:1050700020B1002343600372214B0360A868002124
:1050800003685B6A9847064608B1FBF783FF6868C8
:10509000002103685B6A9847054610B13146FBF76B
:1050A00017FFC9F80040C8F800503E60E5B12B1D5D
:1050B000CAF80030C5F808A03368F5633046DB68ED
:1050C00098472B6828461B6898472146304616F0BB
:1050D00037FD236820461B699847236820465B6993
:1050E00098472846BDE8F0872B46E1E7704604085C
:1050F00085480408FE4604083F470408E2470408C0
:105100005446040807B5D0F8583100F59E71009355
:10511000D0F85421034B0448FFF754FF03B05DF867
:1051200004FB00BFA86A0820A46A0820704700009A
:1051300030B5124C8FB0236813F001031BD13F220E
:1051400009920F4ACDE90B3308920E4A0A93CDE932
:105150000632059304220125CDE901331923CDE957
:105160000325009310220849084800F06BF808480E
:1051700025603DF05BFC05480FB030BD24330620B0
:10518000ACCB04088CCB0408CC830408283306205D
:105190002D51000813B5002249B102AB019203F86A
:1051A000052D0268946801AAA04702B010BD084608
:1051B000FBE7C0897047008A7047C08870478088C5
:1051C0007047807A00F07F007047807AC00970478E
:1051D000002070479FED010A704700BF00000000EB
:1051E000406A7047806A704770478B88C069DB0AE5
:1051F0000A6850F823001044704710B5C2B1137B01
:10520000B3B1547BD27A240204F4E0641443026AFA
:1052100098B202EB840213888B4202D192F9020009
:1052200010BD05D8013880B204320028F3D1F7E769
:105230000020F5E710B504462C213CF00BF8204681
:1052400010BD000030B504468BB0BDF86050089525
:10525000BDF85C5007959DF8505006959DF84C5050
:1052600005959DF8485004959DF8445003959DF888
:10527000405002959DF83C500195BDF8385000957E
:1052800015F0C8FF2046064B2360159BE361169B73
:105290002362199B63621A9BA3620BB030BD00BFEF
:1052A000984904087047000030B5124C8FB023684D
:1052B00013F001031BD13F2209920F4A01250892E6
:1052C0000E4ACDE90B33CDE906320422CDE90325A0
:1052D0000F220A930593CDE9013300921223084966
:1052E0000848FFF7AFFF084825603DF09FFB0548E1
:1052F0000FB030BD54330620B4CB040890CB040863
:10530000DCC0040858330620A5520008704700008E
:1053100030B5124D8FB02B6813F001031BD13F2223
:1053200009920F4A012408920E4ACDE90B33CDE9C8
:1053300006320A9305930422CDE901330A23CDE90D
:1053400003240093224608490848FFF77BFF0848DA
:105350002C603DF06BFB05480FB030BD8433062058
:105360009CCB040898CB0408B0C1040888330620FD
:105370000D53000810B5002404600C6014601C601C
:1053800010BD704730B5124D8FB02B6813F001037C
:105390001BD13F2209920F4A012408920E4ACDE9FF
:1053A0000B33CDE906320A9305930422CDE901338C
:1053B0002823CDE903240093224608490848FFF733
:1053C00041FF08482C603DF031FB05480FB030BD6F
:1053D000B433062094CB0408B0CB040894C404086A
:1053E000B8330620835300087047000030B5124CD4
:1053F0008FB0236813F001031BD13F2209920F4A9B
:10540000CDE90B3308920E4A0A93CDE90632059393
:1054100004220125CDE901331423CDE903250093AE
:10542000032208490848FFF70DFF084825603DF0B2
:10543000FDFA05480FB030BDE4330620A0CB0408C8
:10544000B8CB0408A4C40408E8330620E9530008D4
:105450007047000030B5134D8FB02B6813F0010377
:105460001CD13F220992104A012408920F4ACDE92B
:105470000B33079204220A93CDE90232CDE90534B9
:1054800001931E23049400931C22242308490948F5
:10549000FFF7D8FE08482C603DF0C8FA05480FB069
:1054A00030BD00BF14340620A4CB0408BCCB0408D4
:1054B000D0C404081834062051540008704710B5B1
:1054C000044604213BF0C6FE204610BD08B506295F
:1054D00021D8DFE801F004080C1014181C0000F0BB
:1054E00059F8006808BD00F055F84068FAE700F088
:1054F00051F88068F6E700F04DF8C068F2E700F078
:1055000049F80069EEE700F045F84069EAE700F085
:1055100041F88069E6E70020E4E7704730B5134DB5
:105520008FB02B6813F001031CD13F220992104A5F
:10553000012408920F4ACDE90B33079204220A9303
:10554000CDE9023201931423CDE90544009304947C
:1055500018235F2208490948FFF774FE08482C60A9
:105560003DF064FA05480FB030BD00BF443406205A
:10557000A8CB0408C0CB040858C604084834062049
:105580001B550008004870470C4A04080F2070475C
:1055900015207047004870477434062010B5FFF797
:1055A00025FF0A4C2060FFF7EDFE6060FFF7B0FEBC
:1055B000A060FFF7BDFDE060FFF74CFF2061FFF743
:1055C000ADFF6061FFF770FEA06110BD743406206E
:1055D00000207047002070470EB403B503AB53F8AA
:1055E000042B0021019315F015F902B05DF804EBCE
:1055F00003B070470CB407B504AB53F8042B019308
:1056000015F008F903B05DF804EB02B07047000034
:1056100010B5436C044673B3038F2BB9C521184BE7
:10562000184A19483DF0E4F9C38E00EB43035B8C44
:105630000BB317F04EF8238F012B03D8134B144AEA
:10564000CB21EEE7E28E40F63F10531C9BB2194689
:10565000092B88BFA3F10A0104EB4101498C814267
:1056600009D10A2B28BF002304EB4202508C04EB23
:105670004303588451842046BDE8104016F02CBFE7
:10568000384B0408654C0408414B0408854B04085A
:10569000934B040816F0E7BE10B586B002AC84E860
:1056A00006001A460AAB05930193099B2146009315
:1056B000089B13F0E1FC06B010BD000038B5D8B966
:1056C000114B12481B681249BBB11A689C681A44F6
:1056D00002605A681C441A440A606CB100220D4BE7
:1056E0001A80FFF757FF0546FFF752FF0A4B1C6071
:1056F0000A4B1D600A4B188038BD0A4B03600A4BE9
:105700000B600A4B1C68E8E79034062094340620AE
:10571000983406209C340620B86A0820C06A082005
:10572000BC6A082048CC0408C4CB040844CC040854
:10573000044B1B6853F82100034B1B6803EB40002C
:10574000704700BF9834062094340620012380F867
:10575000781080F87930704700207047416400313C
:1057600018BF0121014B1970704700BF5F6A082004
:1057700000207047836B0BB10846184770474FF6FF
:10578000FF707047406803689B691847704770470F
:10579000704700009022044B83F8762383F8872318
:1057A00083F88423704700BF00E100E0094A0A49FA
:1057B000D3680A48C3F30A03013B9BB20B8011690B
:1057C000C1F30A01013901801364536B43F00103F3
:1057D0005363704700680140D6340620D434062055
:1057E000014B986A704700BF846801400122024B58
:1057F000996243F8602C7047846801407047242305
:1058000003FB0101002381F82430704780F82C103D
:10581000704710B5044630213BF01CFD204610BDFA
:1058200038B504464FF4005118F050FC23685D6E03
:1058300014F05AF801462046A8472368064AD3F8D0
:105840008850064900232046A8476268044B5A64E2
:10585000044A536038BD00BFD84E1420D8960820A3
:10586000D8340620A434062010B531B90A4B0B4AAF
:1058700040F2D2210A483DF0BBF8C0E90F120032D5
:1058800018BF012207490A7002681946BDE8104096
:10589000D2F88C20104700BF364E0408C75B0408BE
:1058A0006E4E04085E6A082008B5094B1B888B42BF
:1058B00003D8084B1B88934205D9074B074A9E2102
:1058C00007483DF095F8074B1980074B1A8008BD33
:1058D000546A0820566A0820D34D0408845B0408E3
:1058E0006E4E04085A6A08205C6A082008B531B177
:1058F000044B054A4FF4917104483DF079F890F853
:10590000250008BD504D040854510408644D040896
:1059100010B531B1064B074A4FF48E7106483DF081
:1059200067F840681146BDE8104003681B6B1847D4
:10593000504D04089F570408644D040808B531B160
:10594000044B054A4FF48A7104483DF051F8C06891
:1059500008BD00BF504D0408E6580408644D040813
:1059600070B504460D4629B10D4B0E4A5E210E4816
:105970003DF03EF8406811460368DB689847606870
:1059800003689B6A98472368E06084F828505E6A41
:1059900029462B462046B446BDE8704001226047A8
:1059A000504D040840550408644D04082DE9F041A9
:1059B000044617460D4629B10E4B0F4A4E210F489B
:1059C0003DF016F840683946026896681A46B047B6
:1059D000606803689B6A98472368E06084F82850F1
:1059E0005E6A29462B462046B446BDE8F0410122B6
:1059F000604700BF504D0408CC530408644D0408B0
:105A000008B529B1054B064A402106483CF0F0FF95
:105A1000C0E905328160016108BD00BF504D040836
:105A200077520408644D040818F08EBA18F0C0BA12
:105A30000DF067BA0DF0D7BB10B504460EF00AF8AA
:105A400023682046BDE81040D3F8AC3018470DF06D
:105A50008BBB90F87A301BB1406803681B6818470D
:105A60001846704710B590F8784090F834100C4BF9
:105A70008C421A7809D03AB90A490B4A0888148826
:105A8000108001220C801A7010BD002AFCD0064A3A
:105A90000449148808880C8010800022F3E700BFB6
:105AA000586A0820566A0820546A082070B50446CF
:105AB00029B1274B274A6E2127483CF099FF052A38
:105AC0002BD8DFE802F003252B30373F406803680E
:105AD0001B69984708B3012384F82530002384F814
